:100000000C9480030C94C4030C94C4030C94C40398
:100010000C94C4030C94C4030C94C4030C94C40344
:100020000C94C4030C94C4030C941C090C94C403D6
:100030000C948C190C94C4030C94C4030C94C40346
:100040000C94C4030C94C4030C94C4030C94C40314
:100050000C94C4030C9411190C94C4030C94C403A1
:100060000C94C4030C94C4030C94C4030C94C403F4
:100070000C94C4030C94C4030C94C4030C94C403E4
:100080000C94C4030C94C4030C94C4030C94C403D4
:100090000C94C4030C94C4030C94C4030C94C403C4
:1000A0000C94C4030C94C4030C94C4031A0B3C0BAF
:1000B0002B0C3C0B2B0C810BA50B2B0CFA0B0D0CFA
:1000C0009F0E9F0ECD0ECD0E360F740F5E115E117A
:1000D0008D0F5E118E108E1032115E115E1149115E
:1000E0008C1EA41E731E511F511FAF1F511F511F85
:1000F000BF1E511FC91E131F511F511F511F511FDA
:10010000EC1ED31E511FAF1F511FAB1E511F511F9D
:100110003C1F3C1F3C1F3C1F3C1F3C1F3C1F3C1F07
:100120003C1F371F511F371F511F511F511F511F98
:10013000511F511F511F511F511F511F511F371F59
:10014000511F511FAF1F781E3E1F3E1F3E1F3E1FF7
:100150003E1F3E1F3E1F3E1F3E1F3E1F3E1F3E1FB7
:100160001C1F511F961E018CF1A1F1A2F1A3F1A455
:10017000F1A526022702248A02F00000292BE0E1E3
:10018000E30000002109C20616000000201AE21B4D
:10019000150000001E0035000000000000000000F7
:1001A0000000000022130019170000001F14E01DBA
:1001B00004000000230A2C05070000002618E4367E
:1001C00008000000250FC91011000000240D000ECA
:1001D0000B000000271CE6370C0000002A004FC867
:1001E0002800000035305152310000002D33C13855
:1001F000120000002E2F50E534000000A539010147
:10020000010000003D010101010000003C0101016D
:10021000A90000003A0001000000000000000000FA
:10022000000000003E010001010000003B0101014F
:10023000AA0000003F010101010000004246014DFB
:100240004A000000410101565400000040010057DF
:10025000550000004347014E4B0000004C000101D7
:10026000580000004901010101000000444801510B
:1002700050000000455201014F000000A50101019E
:10028000010000003D010101C40000003C0101012A
:10029000010000003A000100000000000000000022
:1002A000000000003E010001C50000003B0101010B
:1002B000010000003F010101010000004271010145
:1002C000520000004170C901510000004001002AA5
:1002D00050000000437201014F0000004C0001017A
:1002E00028000000490101010100000044730101E0
:1002F0004C0000004501010101000000A5010101C1
:10030000010000003D69C901010000003C610101DC
:10031000010000003A0001000000000000000000A1
:10032000000000003E010001010000003B010162ED
:10033000010000003F01015D01000000425A016020
:100340006E0000004159015F6B0000004001005E3B
:1003500068000000435B01016C0000004C000101DB
:10036000280000004901010101000000445C010176
:100370006D0000004501010101000000A50101011F
:100380000100000001010101010000000101010163
:10039000010000000100010000000000000000005A
:1003A0000000000001010001010000000101010145
:1003B00001000000010101010100000026220101ED
:1003C0001F000000252101011E0000002401000182
:1003D00027000000012301012000000001000101AD
:1003E00028000000010101010100000001010101DC
:1003F000010000000101010101000000A50101014F
:1004000001000000010101010100000001010101E2
:1004100001000000010001000000000000000000D9
:1004200000000000010100010100000001010101C4
:1004300001000000010101010100000001C70101EC
:100440002D00000001C6010157000000010100015C
:100450005500000001010101380000000100010108
:10046000280000000101010101000000010101015B
:10047000010000000101010101000000292BC1E180
:10048000E30000002108C20607000000201AE21B5A
:10049000160000001E0035000000000000000000F3
:1004A0000000000022150019090000001F14E01DC3
:1004B0000400000023172C050A000000260C8836D3
:1004C0000E0000002518C3100D000000241C0011B0
:1004D0000B0000002712E6370F0000002A004FC86B
:1004E0002800000089305152310000002D13C1381E
:1004F000330000002E2F50873400253032583A2028
:10050000253038620A001203480048004B004200C0
:1005100020006D006F00640000000E0374002E00C8
:100520006D002E006B002E00000004030904090278
:100530006D00040100A03209040000010301010064
:10054000092111010001223F000705810308000A6B
:100550000904010001030102000921110100012227
:100560004D000705820308000A0904020001030088
:10057000000009211101000122360007058303084C
:10058000000A090403000103000000092111010011
:100590000122390007058403100001120110010037
:1005A000000008EDFEFECA04010102000105010978
:1005B00006A101050719E029E71500250195087531
:1005C000018102050819012905950575019102951A
:1005D000017503910105071900297715002501957B
:1005E0007875018102C005010980A101850216010B
:1005F0000026B7001A01002AB70075109501810086
:10060000C0050C0901A1018503160100269C021AF0
:1006100001002A9C02751095018100C005010902A4
:10062000A1010901A10005091901290515002501EC
:100630009505750181029501750381010501093058
:1006400009311581257F95027508810609381581C4
:10065000257F950175088106050C0A38021581254C
:100660007F950175088106C0C005010906A1010535
:100670000719E029E7150025019508750181029504
:100680000175088101050819012905950575019174
:10069000029501750391010507190029FF15002531
:1006A000FF950675088100C06B6579626F617264A1
:1006B0005F69646C653A2025580A006B6579626F42
:1006C0006172645F70726F746F636F6C3A2025584B
:1006D0000A00686F73745F6B6579626F6172645F43
:1006E0006C65647328293A2025580A0074696D6581
:1006F000725F636F756E743A202530346C580A004F
:1007000011241FBECFEFDAE0DEBFCDBF04B603FE7B
:1007100024C08091F6019091F701A091F801B09169
:10072000F9018730904BA740B04BB9F41092F60115
:100730001092F7011092F8011092F90114BE84B7DB
:10074000877F84BF88E10FB6F89480936000109291
:1007500060000FBEE0E0F8E3099511E0A0E0B1E031
:10076000ECE6F2E402C005900D92A233B107D9F78E
:1007700011E0A2E3B1E001C01D92A63FB107E1F78D
:100780000E9471070C9434210C940000FF93EF93A6
:10079000E091D901F091DA01309709F00995EF91D4
:1007A000FF910895FC018591803011F0EFDFFBCFC0
:1007B0000895FF27E0E230E247FF0CC0419597FF24
:1007C00009C0EDE26095709580959095611D711D51
:1007D000811D911D27FF02C0219530E350E2AA2719
:1007E000660F771F881F991FAA1FA41710F0A41B5C
:1007F00063955A95A9F7AA3008F0A95FA05DAF9359
:10080000F395611571058105910541F7ED3211F4FC
:10081000EF93F395F21718F43F93F395FBCF8F9175
:10082000B5DFFA95E1F70895E991F9918591803066
:1008300021F0853219F0AADFF9CF089520E0E8947D
:1008400055915532C1F3503311F4689455915A3390
:1008500048F4505390F3220F022E220F220F200D46
:10086000250FF4CF0EF4219589919991533619F300
:10087000533729F1533559F1BC0188279927E8945A
:100880005C3621F48991999168945591543639F4E4
:1008900046EF7EF077FF0DC08FEF9FEF0AC0553710
:1008A0004AE039F0583540E121F0523642E009F093
:1008B0000895FF93EF937DDFEF91FF91B7CFFF9303
:1008C000EF93FC0181918030B9F360DFFBCFFF93A0
:1008D000EF9368DFF1CFDF93CF93CDB7DEB72596E7
:1008E000A3DFCF91DF9108956230C9F4FC018281CA
:1008F000882351F082E00E94401784E00E94401754
:1009000081E00E94401709C082E00E94461784E0FF
:100910000E94461781E00E9446170C9471170895B3
:10092000E72FF0E090E1899FE00DF11D112483E0B5
:10093000EE0FFF1F8A95E1F7E60FF11DE658FE4F17
:1009400084910895E82FF0E0EE0FFF1FEA51F04088
:100950008591949108958FEF84B915B857985F9A4F
:10096000549A5C9A87B1806C87B988B1806C88B9D9
:100970002E9A2F98E2E4F1E080E18E0F11928E130F
:10098000FDCFE2E3F1E080E18E0F11928E13FDCFF7
:1009900082E491E0909355018093540182E391E0C9
:1009A00090935301809352010895CF92DF92EF927A
:1009B000FF920F931F93CF93DF93809152019091F9
:1009C00053012091540130915501309353012093EC
:1009D0005201909355018093540180E090E0E1E052
:1009E000F0E0CC24CA94D12C40E050E0D82FD7704E
:1009F000C82FC87025B1207C2D2BBA0133E0660FBB
:100A0000771F3A95E1F7262B25B928B12F73CC2310
:100A100011F0206401C0206828B92AE12A95F1F775
:100A200000C02091520130915301280F391FD90184
:100A30002C9130E0042E02C0359527950A94E2F7F8
:100A400020FD2F9AB5E3BA95F1F70000F6B42E9881
:100A50002AE12A95F1F700C0609154017091550187
:100A60008B01080F191F4F9B0BC09F01042E01C063
:100A7000220F0A94EAF72095D8013C91232309C05C
:100A8000D801EC909F01042E01C0220F0A94EAF7CE
:100A90002E292C9326B50F2D10E02F1528F026B502
:100AA00030E0201B310B06C0F6B49601201B310B41
:100AB0002F0D311D2630310560F02091520130910B
:100AC0005301280F391FD9012C91680F791FDB01C1
:100AD0002C93BAE1BA95F1F700C02F982E9AABE2A9
:100AE000B1E01197F1F700C000004F5F5F4F483051
:100AF000510509F07FCF01968031910509F074CF3F
:100B000081E0DF91CF911F910F91FF90EF90DF90E7
:100B1000CF9008952091540130915501F901E80FCB
:100B2000F11D808108950F931F93CF93DF93C0E051
:100B3000D0E00AEF14E0E0915401F0915501EC0F80
:100B4000FD1F80810E9496191F928F93DF93CF9390
:100B50001F930F930E946B0421960F900F900F909C
:100B60000F900F900F90C031D10529F7DF91CF91F1
:100B70001F910F910895569A81FF02C05E9A0895C1
:100B80005E980895809167010895CF93DF9300D018
:100B90001F92CDB7DEB79C018091ED01843019F52D
:100BA00093E099833B832A839093E9008FEF9091A0
:100BB000E800815095FD06C095ED9A95F1F700008B
:100BC0008111F5CF8091E80085FF0DC040E050E035
:100BD00063E070E0CE0101960E94E7098091E80091
:100BE0008E778093E8000F900F900F90DF91CF9158
:100BF0000895CF93DF9300D01F92CDB7DEB7209139
:100C0000ED01243021F522E029839B838A8383E050
:100C10008093E9008FEF9091E800815095FD06C028
:100C200095ED9A95F1F700008111F5CF8091E800DC
:100C300085FF0DC040E050E063E070E0CE0101961A
:100C40000E94E7098091E8008E778093E8000F907A
:100C50000F900F90DF91CF9108952091ED012430F6
:100C6000F1F422E02093E9002FEF3091E8002150C9
:100C700035FD06C035ED3A95F1F700002111F5CFAD
:100C80002091E80025FF0BC040E050E065E070E0F7
:100C90000E94E7098091E8008E778093E80008952C
:100CA000CF93DF93EC019091ED01943009F042C0B5
:100CB00080910B018823B9F09093E9008FEF909118
:100CC000E800815095FD06C095E19A95F1F7000086
:100CD0008111F5CF8091E80085FF2CC040E050E005
:100CE00060E170E017C081E08093E9008FEF9091A0
:100CF000E800815095FD06C095ED9A95F1F700004A
:100D00008111F5CF8091E80085FF14C040E050E0EC
:100D100068E070E0CE010E94E7098091E8008E77DC
:100D20008093E80080E1FE01A7E5B1E001900D921B
:100D30008A95E1F7DF91CF91089508950895089578
:100D400008950C948A19089542E061EC81E00E94B4
:100D5000200842E061EC82E00E94200842E061EC61
:100D600083E00E94200842E161EC84E00C942008BA
:100D70008091EF01833009F455C030F4813071F077
:100D8000823009F495C008958A3009F481C08B300F
:100D900009F460C0893009F0A3C020C08091EE0141
:100DA000813A09F09DC08091E800877F8093E80038
:100DB0008091F2019091F301892B21F460E187E5A4
:100DC00091E003C060E080E090E070E00E94340AAF
:100DD0008091E8008B778093E80008958091EE0180
:100DE000813209F07DC08091F2019091F30100976A
:100DF00019F0039709F074C08091E800877F809311
:100E0000E8008091E80082FD05C08091ED0181112C
:100E1000F8CF66C08091F100809367018091E8006F
:100E20008B775AC08091EE01813A09F059C08091C8
:100E3000F2019091F301892B09F052C08091E800F2
:100E4000877F8093E8008091E80080FFFCCF80914D
:100E50000A013DC08091EE01813209F041C08091CC
:100E6000F2019091F301892BD9F58091E800877FF9
:100E70008093E8000E9455089091F00181E0911163
:100E800001C080E080930A0180930B010C948011D3
:100E90008091EE01813221F58091E800877F809377
:100EA000E8000E9455088091F10180935601089551
:100EB0008091EE01813AA1F48091E800877F8093D0
:100EC000E8008091E80080FFFCCF8091560180937C
:100ED000F1008091E8008E778093E8000C9455082B
:100EE000089584B7877F84BF88E10FB6F894809314
:100EF0006000109260000FBE90E080E80FB6F8949A
:100F000080936100909361000FBE0E94A6080E942A
:100F100003098091E20084608093E20078948091DC
:100F2000ED01843019F00E94440CF9CF0E94B70CF7
:100F300080E091E00E945F0C8091ED01853069F4C2
:100F40000E9458198091EB018823B1F30E947A190D
:100F5000882391F30E940A08EFCF0E94BD0C0E94E3
:100F6000440CEACF292F332723303105C9F064F42C
:100F70002130310581F02230310509F043C08DE682
:100F800090E02EE235E042C021323105F1F022320C
:100F9000310541F137C082E190E02BE935E036C000
:100FA00099278130910541F08230910541F0892BDC
:100FB00049F5EAE2F5E005C0EAE1F5E002C0E6E065
:100FC000F5E0849190E09F0121C06430D8F4E62FD1
:100FD000F0E0EE0FFF1FE05EFE4F2081318189E0DF
:100FE00090E014C0643070F470E0FB01EE0FFF1F5E
:100FF000E85EFE4F20813181FB01EC5EFE4F808177
:1010000090E004C080E090E020E030E0FA0131831D
:101010002083089580E189BD82E189BD09B400FE85
:10102000FDCF8091D8008F7D8093D8008091E00023
:1010300082608093E0008091E00081FDFCCF089504
:10104000982F973058F59093E900981739F07091E0
:10105000EC002091ED005091F00003C0242F762F7A
:1010600050E021FF19C03091EB003E7F3093EB0040
:101070003091ED003D7F3093ED003091EB00316019
:101080003093EB007093EC002093ED005093F00050
:101090002091EE0027FF07C09F5FD3CF8F70809312
:1010A000E90081E0089580E008958091EE0187FFD6
:1010B00011C08091E80082FD05C08091ED01811191
:1010C000F8CF11C08091E8008B770BC08091ED01C3
:1010D000882349F08091E80080FFF8CF8091E800F4
:1010E0008E778093E80008952091E4003091E50028
:1010F00095E64091EC00842F817040FF22C08091E2
:10110000E80080FD1CC08091ED01882391F08530BE
:1011100091F08091EB0085FD10C04091E40050916A
:10112000E5004217530729F39A01915011F784E023
:10113000089582E0089583E0089581E0089580E0B5
:1011400008954091E80042FFDECF08950E940F0904
:101150000E941709E0EEF0E0808181608083E8ED75
:10116000F0E080818F77808319BCA7EDB0E08C918F
:101170008E7F8C9380818F7E80831092EC01089506
:101180000F931F93CF93DF930E940F090E941709BB
:10119000C8EDD0E088818F778883888180688883D4
:1011A00088818F7D888319BC1092ED011092E9012E
:1011B0001092EB011092EA0100EE10E0F80180813C
:1011C0008B7F808388818160888342E060E080E05B
:1011D0000E942008E1EEF0E080818E7F8083E2EEC5
:1011E000F0E0808181608083808188608083F80165
:1011F00080818E7F8083888180618883DF91CF9119
:101200001F910F910895E7EDF0E080818160808368
:1012100084E082BF81E08093EC010C94C008E8ED8B
:10122000F0E080818E7F80831092E200089510921A
:10123000DA001092E10008951F920F920FB60F92FC
:1012400011242F933F934F935F936F937F938F93CB
:101250009F93AF93BF93EF93FF938091E10082FF41
:101260000BC08091E20082FF07C08091E1008B7F7C
:101270008093E1000E94A3068091DA0080FF1FC0E6
:101280008091D80080FF1BC08091DA008E7F809310
:10129000DA008091D90080FF0DC080E189BD82E134
:1012A00089BD09B400FEFDCF81E08093ED010E946D
:1012B0009D0605C019BC1092ED010E949E0680910A
:1012C000E10080FF19C08091E20080FF15C080918D
:1012D000E2008E7F8093E2008091E2008061809343
:1012E000E2008091D80080628093D80019BC85E02C
:1012F0008093ED010E94A0068091E10084FF2EC042
:101300008091E20084FF2AC080E189BD82E189BD2D
:1013100009B400FEFDCF8091D8008F7D8093D80066
:101320008091E1008F7E8093E1008091E2008F7ECA
:101330008093E2008091E20081608093E2008091DE
:10134000E901811106C08091E30087FD02C081E0C0
:1013500001C084E08093ED010E94A1068091E1002C
:1013600083FF24C08091E20083FF20C08091E100D0
:10137000877F8093E10082E08093ED011092E90184
:101380008091E1008E7F8093E1008091E2008E7F6A
:101390008093E2008091E20080618093E20042E06D
:1013A00060E080E00E9420080E949F06FF91EF917C
:1013B000BF91AF919F918F917F916F915F914F916D
:1013C0003F912F910F900FBE0F901F901895CF92C5
:1013D000DF92EF92FF920F931F93CF93DF93EC0175
:1013E0008B017A010E947408811135C0E114F10467
:1013F00039F0F70180819181081B190BC80FD91FA3
:10140000C12CD12C0115110529F18091E80085FD31
:1014100018C08091E8008E778093E8000E94440C09
:10142000E114F10449F0F70180819181C80ED91EC1
:10143000D182C08285E00FC00E947408882311F316
:101440000AC089918093F10001501109FFEFCF1A72
:10145000DF0AD8CF80E0DF91CF911F910F91FF90ED
:10146000EF90DF90CF9008952091F4013091F50135
:101470002617370748F06115710539F42091E80007
:101480002E772093E80001C0B90140E06115710595
:10149000A9F12091ED01222309F441C0253009F47E
:1014A00040C02091E80023FD38C02091E80022FDD3
:1014B0002EC02091E80020FFE9CF4091F300209159
:1014C000F20030E0342BFC01CF016115710559F0B9
:1014D0002830310540F481918093F1006150710909
:1014E0002F5F3F4FF1CF41E02830310509F040E058
:1014F0002091E8002E772093E800C8CF4111C9CF92
:1015000006C08091ED01882351F0853051F0809123
:10151000E80082FFF6CF80E0089581E0089582E040
:10152000089583E008952091F4013091F501261784
:10153000370748F06115710539F42091E8002E77DE
:101540002093E80001C0B901FC0120E0611571059C
:1015500091F18091ED01882309F43EC0853009F4B2
:101560003DC08091E80083FD35C08091E80082FD98
:101570002BC08091E80080FFE9CF2091F30080919B
:10158000F20090E0922B6115710559F088309105B9
:1015900040F424912093F100319661507109019635
:1015A000F2CF21E0089709F020E08091E8008E77E3
:1015B0008093E800CBCF2111CCCF06C08091ED0104
:1015C000882351F0853051F08091E80082FFF6CFFA
:1015D00080E0089581E0089582E0089583E0089511
:1015E0000F931F93CF93DF93CDB7DEB7AA970FB6B4
:1015F000F894DEBF0FBECDBFEEEEF1E088E08E0FB7
:101600009091F10091938E13FBCF0E94B8068091C8
:10161000E80083FF20C18091EE019091EF01492FF6
:1016200050E04A30510508F016C1FA01EA5AFF4F5E
:101630000C94E920803881F0823809F00CC1809147
:10164000F2018F708093E9008091EB0085FB882781
:1016500080F91092E90006C08091EA019091EB01B7
:10166000911182609091E800977F9093E8008093B9
:10167000F1001092F100C9C0282F2D7F09F0EBC0B6
:10168000882319F0823061F0E6C08091F00181304A
:1016900009F0E1C0933009F080E08093EB012BC0AA
:1016A0008091F001811127C08091F2018F7009F4BF
:1016B000D2C08093E9002091EB0020FF1CC0933042
:1016C00021F48091EB00806214C09091EB00906156
:1016D0009093EB0021E030E0A90102C0440F551FB8
:1016E0008A95E2F74093EA001092EA008091EB00BD
:1016F00088608093EB001092E9008091E800877F7A
:1017000087C08111A8C01091F0011F770FB7F8941E
:101710008091E800877F8093E8000E9455088091BF
:10172000E80080FFFCCF8091E3008078812B8093DC
:10173000E30080688093E300111102C082E001C0E1
:1017400083E08093ED010FBF86C08058823008F09F
:1017500082C08091F0019091F1018C3D53E095079A
:1017600079F583E08A838AE289834FB7F894DE01B2
:10177000139620E03EE051E2E32FF0E05093570053
:10178000E49120FF03C0E295EF703F5FEF708E2F72
:1017900090E0EA3010F0C79601C0C0968D939D93FB
:1017A0002F5F243149F74FBF8091E800877F8093F6
:1017B000E8006AE270E0CE0101960E94340A14C08B
:1017C000AE014F5F5F4F6091F2010E94B207BC0112
:1017D000009709F440C09091E800977F9093E8004B
:1017E00089819A810E94930A8091E8008B77809387
:1017F000E80031C0803879F58091E800877F8093D8
:10180000E8008091E9018093F1008091E8008E77F3
:101810008093E8000E9455081EC081111CC0909161
:10182000F0019230C0F48091E800877F8093E80057
:101830009093E9010E9455088091E901811106C049
:101840008091E30087FD02C081E001C084E08093C5
:10185000ED010E94A4068091E80083FF0AC08091F8
:10186000EB0080628093EB008091E800877F80939B
:10187000E800AA960FB6F894DEBF0FBECDBFDF9189
:10188000CF911F910F910895CF938091ED018823FF
:10189000A1F0C091E900CF709091EC00892F817088
:1018A00090FD80E8C82B1092E9008091E80083FD4C
:1018B0000E94F00ACF70C093E900CF9108959093F1
:1018C0006D0180936C01089580916C0190916D0180
:1018D0000895E0916C01F0916D01309721F0019035
:1018E000F081E02D099480E00895E0916C01F09181
:1018F0006D01309721F00280F381E02D0994089565
:10190000E0916C01F0916D01309721F00480F58138
:10191000E02D0994089520916A0130916B0182179E
:10192000930771F090936B0180936A01E0916C01D1
:10193000F0916D01309721F00680F781E02D099438
:10194000089520916801309169018217930771F021
:101950009093690180936801E0916C01F0916D01B1
:10196000309721F00084F185E02D099408950E94BC
:10197000D2180E94AB040C94EC19CF92DF92EF9234
:10198000FF920F931F93CF93DF93CDB7DEB72B97C3
:101990000FB6F894DEBF0FBECDBF0E94D5048FE610
:1019A000C82E81E0D82E00E010E0E02E802F0E94AB
:1019B0008A05F60141916F01F42EF826B1F40F5F0C
:1019C0001F4F0031110589F78FEF89838A831B82AE
:1019D0000E94DB188160782F9D838C8349815A8116
:1019E0006B818D810E94600D40C09091D80191FF64
:1019F00004C08B870E9493058B8520E030E04F2D3B
:101A000050E0922FBA01022E02C0759567950A9494
:101A1000E2F760FF24C02E83EF8221E030E069010D
:101A200002C0CC0CDD1C9A95E2F790E08C219D2140
:101A3000892B09F420E028870E94DB188160782F29
:101A40009A8789874E815F8168858A850E94600DAB
:101A5000F801E159FE4F8081C826C08206C02F5F81
:101A60003F4F2830310569F6AACF0E94D31C109150
:101A70006E010E94690C1817A1F00E94690C8093F6
:101A80006E012B960FB6F894DEBF0FBECDBFDF916F
:101A9000CF911F910F91FF90EF90DF90CF900C941A
:101AA000BB052B960FB6F894DEBF0FBECDBFDF91FE
:101AB000CF911F910F91FF90EF90DF90CF900895FD
:101AC000CF93DF93CDB7DEB72B970FB6F894DEBF79
:101AD0000FBECDBF4F83588769877A878B87DE011A
:101AE000119686E0FD0111928A95E9F785E0FE01E5
:101AF000379601900D928A95E1F749815A816B8161
:101B00007C818D819E810E941D142B960FB6F894C6
:101B1000DEBF0FBECDBFDF91CF910895CF93882355
:101B200009F499C0C82F8CEF8C0F813A48F48C2FA0
:101B30000E944D1E81118FC08C2F0E94B7160CC0C1
:101B400080E28C0F883058F4C77081E001C0880FA4
:101B5000CA95EAF70E943017CF910C9471178BE564
:101B60008C0F833078F4C53A29F0C63A31F083E817
:101B700090E005C081E890E002C082E890E0CF915B
:101B80000C948B0C88E58C0F833108F064C0C83A44
:101B900039F1C93A41F1CA3A49F1CB3A51F1CC3A5B
:101BA00059F1CD3A61F1C03B69F1CE3A71F1CF3ACA
:101BB00079F1C13B81F1C23B89F1C33B91F1C43B57
:101BC00099F1C53BA1F1C63BA9F1C73BB1F1C83BB7
:101BD000B9F1C93BC1F1CA3BC9F180E090E038C01E
:101BE00082EE90E035C089EE90E032C08AEE90E05F
:101BF0002FC085EB90E02CC086EB90E029C087EBEE
:101C000090E026C08CEC90E023C08DEC90E020C0EA
:101C100083E891E01DC08AE891E01AC082E991E072
:101C200017C084E991E014C081E292E011C083E220
:101C300092E00EC084E292E00BC085E292E008C020
:101C400086E292E005C087E292E002C08AE292E07A
:101C5000CF910C94A10CCF910895882329F19CEF8A
:101C6000980F913A18F40E94F2160DC090E2980F66
:101C7000983058F4877091E001C0990F8A95EAF77F
:101C8000892F0E9436170C9471179BE5980F93309B
:101C900020F480E090E00C948B0C885A833120F47F
:101CA00080E090E00C94A10C0895882321F00E941C
:101CB00030170C9471170895882321F00E9436176D
:101CC0000C9471170895BF92CF92DF92EF92FF921A
:101CD0000F931F93CF93DF9300D000D000D0CDB7E8
:101CE000DEB725E0FC01DE01119601900D922A95E8
:101CF000E1F7FC0130812181F280058102950F70AE
:101D000043815481452B09F4D9C22F3F19F43F3F39
:101D100009F4D4C26C0139832A8389819A810E9493
:101D20007616182FB92E0E9475160E943C15EB2DC1
:101D3000E295EF70F0E0E05AFF4F0C94E9208B2D14
:101D4000807F9B2D9F70092F882311F00295007FC3
:101D5000FF2049F0002309F45EC2802F0E94401743
:101D60000E94711758C2812F0E942D0E002309F482
:101D7000A5C2802F0E94461726960FB6F894DEBFA4
:101D80000FBECDBFDF91CF911F910F91FF90EF90CC
:101D9000DF90CF90BF900C9471178B2D807F9B2D7F
:101DA0009F70803211F4892F03C0892F8295807F24
:101DB000112319F0113011F12BC0FF20A9F00023DD
:101DC00089F1013079F526960FB6F894DEBF0FBE83
:101DD000CDBFDF91CF911F910F91FF90EF90DF90DA
:101DE000CF90BF900C945017002319F0013009F4E4
:101DF00065C28E830E9459178E8127C0FF2021F073
:101E0000063008F05BC20EC0053008F057C21DC096
:101E1000FF20C9F0002331F0F601958190FFFBC14E
:101E20009F70958326960FB6F894DEBF0FBECDBF88
:101E3000DF91CF911F910F91FF90EF90DF90CF90A6
:101E4000BF900C94550E0111FBC126960FB6F89465
:101E5000DEBF0FBECDBFDF91CF911F910F91FF90DD
:101E6000EF90DF90CF90BF900C945C0E2B2D2695B9
:101E70002695237030E02115310521F02130310500
:101E8000D1F01CC2FF2021F0812F9B2D937002C046
:101E900080E090E026960FB6F894DEBF0FBECDBF6F
:101EA000DF91CF911F910F91FF90EF90DF90CF9036
:101EB000BF900C948B0CFF2021F0812F9B2D9370F1
:101EC00002C080E090E026960FB6F894DEBF0FBE09
:101ED000CDBFDF91CF911F910F91FF90EF90DF90D9
:101EE000CF90BF900C94A10C812FFF2019F00E947D
:101EF000DB1B02C00E94431C26960FB6F894DEBF7F
:101F00000FBECDBFDF91CF911F910F91FF90EF904A
:101F1000DF90CF90BF900C94C81C8B2D837009F07C
:101F20007BC0F110CBC1812F829586958770880F79
:101F3000880F912F9F70C92ED12CE12CF12C082EE7
:101F400004C0CC0CDD1CEE1CFF1C0A94D2F714FF5D
:101F500012C04FE050E060E070E004C0440F551F35
:101F6000661F771F8A95D2F7CB01BA0160957095ED
:101F70008095909503C060E070E0CB012B2D2695F5
:101F800026952370422F50E042305105D9F043305E
:101F9000510569F16C297D298E299F294130510510
:101FA00051F126960FB6F894DEBF0FBECDBFDF917C
:101FB000CF911F910F91FF90EF90DF90CF90BF9046
:101FC0000C9463156C297D298E299F2926960FB6BE
:101FD000F894DEBF0FBECDBFDF91CF911F910F915F
:101FE000FF90EF90DF90CF90BF900C947F150E94F0
:101FF0006315C701B60126960FB6F894DEBF0FBE73
:10200000CDBFDF91CF911F910F91FF90EF90DF90A7
:10201000CF90BF900C944715FF2019F08B2D817045
:1020200001C08695882309F449C1812F8295869540
:102030008770880F880F912F9F70C92ED12CE12CAB
:10204000F12C082E04C0CC0CDD1CEE1CFF1C0A94E5
:10205000D2F714FF12C04FE050E060E070E004C01F
:10206000440F551F661F771F8A95D2F7CB01BA011F
:10207000609570958095909503C060E070E0CB010D
:102080002B2D269526952370422F50E04230510586
:10209000D9F04330510569F16C297D298E299F299A
:1020A0004130510551F126960FB6F894DEBF0FBEB0
:1020B000CDBFDF91CF911F910F91FF90EF90DF90F7
:1020C000CF90BF900C943D166C297D298E299F29B5
:1020D00026960FB6F894DEBF0FBECDBFDF91CF912D
:1020E0001F910F91FF90EF90DF90CF90BF900C94D5
:1020F00059160E943D16C701B60126960FB6F894F0
:10210000DEBF0FBECDBFDF91CF911F910F91FF902A
:10211000EF90DF90CF90BF900C942116113F31F1DA
:1021200018F4103F39F072C0123FA9F1133F09F4BF
:1021300047C06CC0FF20B1F0053008F0BFC08B2D48
:102140008F7126960FB6F894DEBF0FBECDBFDF911C
:10215000CF911F910F91FF90EF90DF90CF90BF90A4
:102160000C940016063008F0A9C0E9CFFF20A9F0B2
:102170008B2D8F7126960FB6F894DEBF0FBECDBFA4
:10218000DF91CF911F910F91FF90EF90DF90CF9053
:10219000BF900C94BA15FF2059F38B2D8F712696A2
:1021A0000FB6F894DEBF0FBECDBFDF91CF911F9168
:1021B0000F91FF90EF90DF90CF90BF900C94DB15C4
:1021C000FF2099F08B2D8F7126960FB6F894DEBF05
:1021D0000FBECDBFDF91CF911F910F91FF90EF9078
:1021E000DF90CF90BF900C94A51526960FB6F8946B
:1021F000DEBF0FBECDBFDF91CF911F910F91FF903A
:10220000EF90DF90CF90BF900C949B15FF20A9F02A
:10221000002309F4ADCF812F26960FB6F894DEBFC8
:102220000FBECDBFDF91CF911F910F91FF90EF9027
:10223000DF90CF90BF900C948E0D002309F4ADCFAA
:10224000812F26960FB6F894DEBF0FBECDBFDF916B
:10225000CF911F910F91FF90EF90DF90CF90BF90A3
:102260000C942D0E4B2D4F70612FC6010E94CF187C
:1022700026960FB6F894DEBF0FBECDBFDF91CF918B
:102280001F910F91FF90EF90DF90CF90BF900C9433
:10229000C1144B2D4F70612FC60126960FB6F894CE
:1022A000DEBF0FBECDBFDF91CF911F910F91FF9089
:1022B000EF90DF90CF90BF900C94740426960FB6E9
:1022C000F894DEBF0FBECDBFDF91CF911F910F916C
:1022D000FF90EF90DF90CF90BF9008950E944D1730
:1022E0000E9422170E9471170E94791D0E94C81C2B
:1022F00080E090E00E948B0C80E090E00C94A10CB8
:102300000E943D170C946E110E947616292F22957B
:102310002F7030E02C3031054CF42A30310594F424
:10232000225031092230310538F40CC02C303105EF
:1023300029F02F30310511F080E0089593FB8827B4
:1023400080F9089581E00895CF93DF9300D000D005
:102350001F92CDB7DEB70F900F900F900F900F9098
:10236000DF91CF910895CF93DF9300D000D000D0BC
:10237000CDB7DEB726960FB6F894DEBF0FBECDBF41
:10238000DF91CF9108951F93CF93DF93C0917F0189
:1023900016E080918001C81799F0D0E01C9FF001F1
:1023A0001D9FF00D1124EF57FE4F40815181628136
:1023B0007381848195810E94B3112196C770E9CF02
:1023C000DF91CF911F9108954091B1015091B201D9
:1023D0006091B3017091B4018091B5019091B60103
:1023E0000C94B3118091B60182958F7009F054C09E
:1023F0008091B301882309F44FC080917F01A0919F
:1024000080016091B1017091B2014091B40150918D
:10241000B501B6E08A1709F43FC090E041155105B7
:10242000C1F17F3F11F46F3FA1F1B89FF001B99F57
:10243000F00D1124EF57FE4F218172132AC0208125
:10244000621327C02281211124C0238134812417E3
:10245000350710F421503109241B350B2C32314043
:10246000C0F42091B6012F7020612093B60126E0C0
:10247000289FF001299FF00D1124EA57FE4F80811B
:102480008F708061808381EB91E00E94630E0C94D9
:10249000C31101968770BECF0895CF92DF92EF925D
:1024A000FF920F931F93CF93DF93CDB7DEB7629761
:1024B0000FB6F894DEBF0FBECDBF8C0185E0F801EA
:1024C000DE011D9601900D928A95E1F7D8014C919D
:1024D00011965C91119712966C9112971396CD906C
:1024E000DC9014973091B1017091B2018091B401E8
:1024F0009091B501009709F473C17F3F19F43F3FF4
:1025000009F46EC1E090B301EE2009F4C5C020913A
:10251000B601C816D90650F0F601E81BF90BCF0139
:10252000FF24F3948C329140C8F009C080959095B7
:102530008C0D9D1DFF24F3948C32914078F0F12C8A
:10254000207F09F0C6C07C2DD98AC88A89890E945B
:10255000A41181EB91E00E94630EB1C0822F807FB5
:1025600009F045C0751313C0341311C061110FC0B9
:102570002F7020612093B6010E94E41181EB91E05D
:102580000E94630E8091B601F80185832EC0CD288C
:1025900019F15F3F11F44F3FF9F0F62E61111CC0A5
:1025A00080917F012091800136E0821709F45BC0A1
:1025B00090E0389FF001399FF00D1124EF57FE4F46
:1025C0007181571306C07081471303C07281711166
:1025D00003C001968770E9CFF62E662309F41DC16A
:1025E0008091B60181608093B601F12C16C17513FC
:1025F00009C0341307C0611105C08091B601F8010C
:102600008583C8C04D875E878D859E856A8B0E94B5
:1026100084116A898823E1F16623D1F12091B60102
:10262000822F82958F7090E0029774F08091B101B3
:102630009091B20198878F831986DB86CA862C8792
:10264000CE0107960E94630E86E0F801A1EBB1E08F
:1026500001900D928A95E1F70E94F2110E94E41117
:10266000FF24F394DAC04D875E878D859E850E9496
:102670007616292F22952F7030E0223031050CF08C
:10268000BFC09F7009F0B9C0805E883008F4C5C033
:10269000C8010E94630EE4CFC816D90608F453C0DF
:1026A000F601E81BF90BCF018C32914008F453C0BE
:1026B000F12C7C2DD98AC88A89890E94A411E1EB6A
:1026C000F1E086E0DF011D928A95E9F70E94E411AE
:1026D000A4C0751314C0341312C0611110C08091CE
:1026E000B601F8018583C8010E94630E86E0E1EB24
:1026F000F1E0DF011D928A95E9F7FE2C8EC04D872F
:102700005E878D859E856A8B0E9484116A898823E5
:1027100009F4BECF662309F4BBCF2091B601822F06
:1027200082958F7090E002970CF48ECF8091B1016A
:102730009091B2019A8389831B82DD82CC822E83A1
:10274000CE0101967FCF809590958C0D9D1D8C328A
:10275000914008F0ADCFF62E662309F499CF75139A
:102760002EC034132CC02091B60120FD1FC0822F33
:1027700082958F70D9F0D80115962C9315978F30CC
:1027800049F08F5F982F9295907F822F8F70892BC1
:1027900015968C93C8010E94630E86E0F801A1EBA8
:1027A000B1E001900D928A95E1F790CF86E0F801B3
:1027B000A1EBB1E001900D928A95E1F72EC04D8713
:1027C0005E878D859E850E94841181113DCF809109
:1027D000B60181608093B601C8010E94630E1DC0DE
:1027E000662309F455CF4D875E878D859E850E94AF
:1027F0008411882309F44CCF27CF811145CF0DC018
:10280000243031050CF044CF9F7009F43DCFD8013E
:1028100015969C91907F09F037CF8F2D62960FB659
:10282000F894DEBF0FBECDBFDF91CF911F910F9106
:10283000FF90EF90DF90CF9008951F93CF93DF9399
:10284000CDB7DEB72C970FB6F894DEBF0FBECDBF65
:102850004F83588769877A878B879C87CE01079635
:102860000E944D12882369F08F8198852A853B85C7
:10287000232BF1F19F3F09F063C08F3F09F060C047
:1028800037C086E0FE013796DE01119601900D9269
:102890008A95E1F76F817885EA85FB85309741F16C
:1028A0007F3F11F46F3F21F12091800130E0C90199
:1028B00001968770992740917F0150E08417950712
:1028C00009F447C069837A83FD83EC8396E0929F85
:1028D000D001939FB00D1124AF57BE4FFE0131962A
:1028E00001900D929A95E1F7809380010E94C311A7
:1028F00016E080917F01909180018917C1F1189FA6
:10290000C00111248F579E4F0E944D12882379F1E8
:10291000E0917F011E9FF0011124EF57FE4F40818F
:10292000518162817381848195810E94B31180916C
:102930007F0190E001968770992780937F01D9CF1E
:102940004F81588569857A858B859C850E94B31156
:10295000CFCF0E9480111092800110927F01E1EB95
:10296000F1E086E0DF011D928A95E9F7C1CF2C9650
:102970000FB6F894DEBF0FBECDBFDF91CF911F9190
:102980000895EF92FF920F931F93CF93DF938C01E3
:10299000009709F46AC0F12CEE24E394E801219633
:1029A000F8018491843740F4843008F04FC08130BE
:1029B00081F0823019F159C0853709F442C098F18D
:1029C0009CE7980F903708F050C08F770E942D0E2B
:1029D0003FC00E5F1F4FFE01C49180E28C0F883014
:1029E00048F4C7708E2D01C0880FCA95EAF70E947F
:1029F00040172FC08C2F0E948E0D2BC00E5F1F4FD3
:102A0000FE01C49180E28C0F883048F4C7708E2D8F
:102A100001C0880FCA95EAF70E9446171AC08C2F8A
:102A20000E942D0E16C00E5F1F4FFE01C491CC23D5
:102A300081F08FE99FE00197F1F700C00000C150DD
:102A4000F6CF0E5F1F4FFE01F49003C00E948E0D63
:102A50008E018F2D882309F4A1CFEFE9FFE0319794
:102A6000F1F700C000008150F5CFDF91CF911F91A9
:102A70000F91FF90EF90089508956093BB017093BC
:102A8000BC018093BD019093BE010C946E110F9315
:102A90001F930091BB011091BC012091BD013091A9
:102AA000BE01DC01CB01802B912BA22BB32B809399
:102AB000BB019093BC01A093BD01B093BE011F91D7
:102AC0000F910C946E110F931F930091BB01109105
:102AD000BC012091BD013091BE01DC01CB018023FE
:102AE0009123A223B3238093BB019093BC01A093B5
:102AF000BD01B093BE011F910F910C946E110F9305
:102B00001F930091BB011091BC012091BD01309138
:102B1000BE01DC01CB0180279127A227B327809338
:102B2000BB019093BC01A093BD01B093BE011F9166
:102B30000F910C946E111092B7011092B80110927F
:102B4000B9011092BA010C946E1141E050E060E0BE
:102B500070E004C0440F551F661F771F8A95D2F797
:102B60004093B7015093B8016093B9017093BA01D3
:102B70000C946E1141E050E060E070E004C0440F3E
:102B8000551F661F771F8A95D2F78091B7019091E4
:102B9000B801A091B901B091BA01482B592B6A2B09
:102BA0007B2B4093B7015093B8016093B9017093A8
:102BB000BA010C946E1141E050E060E070E004C096
:102BC000440F551F661F771F8A95D2F74095509581
:102BD000609570958091B7019091B801A091B9016D
:102BE000B091BA01482359236A237B234093B7014C
:102BF0005093B8016093B9017093BA010C946E11AF
:102C000041E050E060E070E004C0440F551F661FD3
:102C1000771F8A95D2F78091B7019091B801A09162
:102C2000B901B091BA01482759276A277B274093F9
:102C3000B7015093B8016093B9017093BA010C9435
:102C40006E110F931F930091B7011091B80120915D
:102C5000B9013091BA01DC01CB01802B912BA22B61
:102C6000B32B8093B7019093B801A093B901B093AF
:102C7000BA011F910F910C946E110F931F93009145
:102C8000B7011091B8012091B9013091BA01DC016E
:102C9000CB0180239123A223B3238093B701909388
:102CA000B801A093B901B093BA011F910F910C9490
:102CB0006E110F931F930091B7011091B8012091ED
:102CC000B9013091BA01DC01CB0180279127A227FD
:102CD000B3278093B7019093B801A093B901B09343
:102CE000BA011F910F910C946E110895CF92DF924B
:102CF000EF92FF920F931F93CF93DF938C01C090BD
:102D0000BB01D090BC01E090BD01F090BE014091AC
:102D1000B7015091B8016091B9017091BA01C42A0C
:102D2000D52AE62AF72ACFE1D0E0D701C6010C2E3A
:102D300004C0B695A795979587950A94D2F780FF1A
:102D400007C0B8018C2F0E945C188130910531F4C6
:102D5000219758F7B80180E00E945C18DF91CF916D
:102D60001F910F91FF90EF90DF90CF900895909179
:102D70000B019923D1F0982F9695969596959F30B3
:102D800080F5E0910C01F0910D01E90FF11D8770C4
:102D900021E030E0A90102C0440F551F8A95E2F7F7
:102DA000CA019181892B8183089520910C01309172
:102DB0000D01F90132969FEF40E05191581789F0CB
:102DC0009F3F19F4511101C0942F4F5F4E30A9F766
:102DD0009F3F39F0F901E90FF11D97FDFA958283C4
:102DE0000895089590910B019923D9F0982F969505
:102DF000969596959F3028F5E0910C01F0910D0184
:102E0000E90FF11D877021E030E0A90102C0440FF5
:102E1000551F8A95E2F7CA018095918189238183A4
:102E2000089520910C0130910D01F9013296205F37
:102E30003F4F9081981301C010823196E217F3073B
:102E4000C1F7089581E090E0E0910C01F0910D014F
:102E5000E80FF91F1082019680319105A9F70895B6
:102E60009091D301892B8093D301089580959091FF
:102E7000D30189238093D30108951092D30108953B
:102E80009091D201892B8093D201089580959091E1
:102E9000D20189238093D20108951092D20108951E
:102EA0008093C1010E94DB189093C0018093BF0101
:102EB00008951092C1011092C0011092BF010895AF
:102EC00080910C0190910D01FC0131969C01205FD5
:102ED0003F4F80E0919191118F5FE217F307D1F797
:102EE0000895E0910C01F0910D018091D301808350
:102EF000E0910C01F0910D0190818091D201892B1C
:102F000080838091C101882379F10E94DB18209190
:102F1000BF013091C0018217930748F00E94DB186F
:102F20002091BF013091C001821B930B0AC00E9407
:102F3000DB182091BF013091C00120953095820FA0
:102F4000931F8C32914010F00E945917E0910C01B0
:102F5000F0910D0190818091C101892B80830E94A5
:102F6000601781110E94591780910C0190910D01F9
:102F70000C94750C8B3B50F4883AE8F4853A90F445
:102F8000843070F4813009F455C007C0803E28F0C9
:102F9000883E30F0803F08F04AC080E090E008951D
:102FA00090E00895853A09F448C0863A09F448C08B
:102FB00083E890E40895883A09F445C0893A09F411
:102FC00045C08A3A09F445C08B3A09F445C08C3AA9
:102FD00009F445C08D3A09F445C0803B09F445C069
:102FE0008E3A09F445C08F3A09F445C0813B09F493
:102FF00045C0823B09F445C0833B09F445C0843B8E
:1030000009F445C0853B09F445C0863B09F445C039
:10301000873B09F445C0883B09F445C0893B09F466
:1030200045C08A3B09F445C080E094E4089590E0EF
:103030009065089581E090E0089581E890E4089516
:1030400082E890E4089582EE94E4089589EE94E491
:1030500008958AEE94E4089585EB94E4089586EB50
:1030600094E4089587EB94E408958CEC94E4089537
:103070008DEC94E4089583E895E408958AE895E456
:10308000089582E995E4089584E995E4089581E23C
:1030900096E4089583E296E4089584E296E4089520
:1030A00085E296E4089586E296E4089587E296E440
:1030B00008958AE296E408950E949004803EA8F460
:1030C000803C00F5813309F45CC038F4893209F49E
:1030D00052C08A3209F45BC05FC08933B1F08238D4
:1030E000A1F0853309F441C057C0833E41F128F473
:1030F000803E99F0823EB9F04FC0863E31F1873E66
:1031000071F14AC00E94A20408959091E80190FDD7
:1031100002C091FF41C080EE3FC08091E80180FF76
:10312000FACF89E339C08091E80182FF0CC0809119
:10313000E80184FF02C080E02FC083EE2DC08091A3
:10314000E80182FFF4CF82EE27C08091E80183FF7F
:103150000AC08091E80184FDEECF87EE1DC080910A
:10316000E80183FFF6CF86EE17C08091E80185FF66
:1031700006C089E211C08091E80185FFFACF85E39E
:103180000BC08091E80186FF06C08AE205C08091ED
:10319000E80186FFFACF81E30E94BA17089580E024
:1031A00090E0089582E084BD93E095BD9AEF97BDCD
:1031B00080936E0008952FB7F8948091D401909178
:1031C000D501A091D601B091D7012FBF0895CF921C
:1031D000DF92EF92FF920F931F932FB7F8944091D5
:1031E000D4015091D5016091D6017091D7012FBFC4
:1031F0006A017B01EE24FF248C0120E030E0C01640
:10320000D106E206F30610F4415051099A01281B39
:10321000390BC9011F910F91FF90EF90DF90CF9074
:1032200008951F920F920FB60F9211248F939F93C0
:10323000AF93BF938091D4019091D501A091D60115
:10324000B091D7010196A11DB11D8093D401909337
:10325000D501A093D601B093D701BF91AF919F91B3
:103260008F910F900FBE0F901F9018950E94A60887
:10327000F8942FEF87EA91E6215080409040E1F7E3
:1032800000C0000087E090EBDC018093F601909392
:10329000F701A093F801B093F9019CE088E10FB623
:1032A000F894A895809360000FBE90936000FFCFC4
:1032B000F894A89523E488E190E00FB6F894A895D7
:1032C000809360000FBE2093600083B7817F84608D
:1032D00083BF83B7816083BF7894889583B78E7FDF
:1032E00083BF88E10FB6F89480936000109260006D
:1032F0000FBE0895CF930E94D504C0E08C2F0E948A
:103300008A05811104C0CF5FC031C1F701C081E0DF
:10331000CF9108950C9480111F920F920FB60F92C7
:1033200011240F900FBE0F901F9018958295982F23
:103330009C7C392F36953695282F237344E0249FA3
:10334000C0011124932F982B292F2A7A2695892F93
:103350008575880F822B0895EF92FF920F931F932C
:10336000CF93DF93D82FC0E08C2F0E948A0500E016
:1033700010E0E82EF12CC701002E02C0959587952C
:103380000A94E2F780FD06C00F5F1F4F0830110559
:1033900091F709C0602F7C2F80E00E949004D81321
:1033A000F3CF81E004C0CF5FC031F1F680E0DF9160
:1033B000CF911F910F91FF90EF900895CF93C82F59
:1033C00086EC0E94AC19882321F08C2FCF910C94AD
:1033D000AC1980E0CF910895CF930E94331B8111E7
:1033E00002C00E94191BC5E6C15049F00E94D504D5
:1033F0008FE39CE90197F1F700C00000F5CF89E267
:103400000E94DE19811113C18AE20E94DE19811126
:103410000E94191B85E00E94DE1981110E94361955
:103420000E943E1B8093D80187E00E94DE1988230A
:10343000A9F18BE10E94DE19882351F08091D80117
:1034400081FB222720F991E0922790FB81F90EC0A1
:103450008EE00E94DE19882361F08091D80182FB02
:10346000222720F991E0922790FB82F98093D801DE
:1034700015C080E10E94DE199091D801882341F0A7
:1034800093FB222720F981E0822780FB93F904C077
:10349000892F809580FB90F99093D8018091D80175
:1034A0000E94421B0E94501B8093E80180EE0E9404
:1034B000DE19882341F08091E801982F909590FBC8
:1034C00080F98093E80189E30E94DE19882359F08E
:1034D0008091E80181FB222720F991E0922790FB5F
:1034E00081F98093E80182EE0E94DE19882359F069
:1034F0008091E80182FB222720F991E0922790FB3E
:1035000082F98093E80186EE0E94DE19882359F043
:103510008091E80183FB222720F991E0922790FB1C
:1035200083F98093E80183EE0E94DE19882359F025
:103530008091E80184FB222720F991E0922790FBFB
:1035400084F98093E80185E30E94DE19882359F00D
:103550008091E80185FB222720F991E0922790FBDA
:1035600085F98093E80181E30E94DE19882359F0F0
:103570008091E80186FB222720F991E0922790FBB9
:1035800086F98093E80181E10E94DE19882359F0D1
:103590008091E80187FB222720F991E0922790FB98
:1035A00087F98093E8018091E8010E94541B809183
:1035B000E80187FB882780F980930B0187E20E944E
:1035C000DE19C82F8EE10E94DE198111C2608FE1E1
:1035D0000E94DE198111C46080E20E94DE1981110F
:1035E000C86081E20E94DE198111C06182E20E94FE
:1035F000DE198111C06283E20E94DE198111C0646C
:1036000084E20E94DE19882311F0C06802C0CC2336
:1036100029F08C2F0E944B1B6C2F03C00E94471B6C
:10362000682F70E080E090E0CF910C943D15CF9131
:1036300008956DEE7EEF80E090E00E941F2160E033
:1036400082E090E00E94112160E083E090E00E941F
:10365000112160E084E090E00E94112160E085E0AB
:1036600090E00C94112180E090E00E940B2121E079
:103670008D3E9E4F09F020E0822F089582E090E079
:103680000C940321682F82E090E00C94112183E0D8
:1036900090E00C940321682F83E090E00C941121BA
:1036A00084E090E00C940321682F84E090E00C9477
:1036B00011218091DD0180FF0BC06091110185E037
:1036C000689FB001112475956795759567952BC016
:1036D00081FF09C06091110185E0689FB00111244C
:1036E0007595679520C082FF07C06091110185E044
:1036F000689FB001112417C09091DE019923D1F089
:1037000060911001961788F72091110185E0289F9C
:1037100090011124929FA001939F500D112470E0FD
:10372000CA010E94D5206038710540F46115710509
:1037300039F002C065E070E0862F08958FE70895A4
:1037400081E008958091DD0180FF08C060910F0144
:1037500070E0759567957595679521C081FF06C0E6
:1037600060910F0170E07595679519C082FF04C0E4
:1037700060910F0170E010C09091DE019923C1F0BB
:1037800060910E019617A0F780910F01899FC001EB
:10379000112470E00E94D5206038710528F461156D
:1037A000710521F0862F08958FE7089581E008952F
:1037B00061E070E0F4CF803F21F40E94591B8195B5
:1037C00004C0813F29F40E94591B8093E1010895B0
:1037D000823F21F40E94591B819504C0833F29F444
:1037E0000E94591B8093E0010895893F19F40E94BB
:1037F000A21B05C08A3F31F40E94A21B81958093D1
:10380000E20108958B3F21F40E94A21B819504C020
:103810008C3F29F40E94A21B8093E3010895843F0A
:1038200021F48091DF01816017C0853F21F48091F0
:10383000DF01826011C0863F21F48091DF01846046
:103840000BC0873F21F48091DF01886005C0883F6D
:1038500031F48091DF0180618093DF0108958D3F15
:1038600021F48091DD0181600BC08E3F21F48091B5
:10387000DD01826005C08F3F29F48091DD01846005
:103880008093DD010895803F39F48091E10187FF45
:103890006CC01092E10169C0813F29F48091E1017F
:1038A0001816BCF362C09091E001823F29F497FFA3
:1038B0005CC01092E00159C0833F19F41916CCF393
:1038C00054C0893F41F48091E20118160CF04DC0BC
:1038D0001092E2014AC08A3F29F48091E20187FFF9
:1038E00044C0F6CF8B3F39F48091E30187FF3DC0A0
:1038F0001092E3013AC08C3F29F48091E30118163D
:10390000BCF333C0843F21F48091DF018E7F17C068
:10391000853F21F48091DF018D7F11C0863F21F426
:103920008091DF018B7F0BC0873F21F48091DF0105
:10393000877F05C0883F31F48091DF018F7E8093BF
:10394000DF0113C08D3F21F48091DD018E7F0BC01C
:103950008E3F21F48091DD018D7F05C08F3F29F4DA
:103960008091DD018B7F8093DD018091E0018111E9
:103970000EC08091E10181110AC08091E2018111A4
:1039800006C08091E301811102C01092DE0108950A
:103990008FED91E00E94800C0E94DB189093DC0177
:1039A0008093DB0108951F93CF93DF938091DB0118
:1039B0009091DC010E94E718AC019091DE019923FF
:1039C00021F02091120130E006C0209113018AE01D
:1039D000289F900111244217530708F486C0809154
:1039E000E001C091E101D091E2011091E301811168
:1039F00007C0C11176C0D11174C0111172C075C059
:103A00009F3F19F09F5F9093DE01181624F40E94E7
:103A1000591B8093E0018091E00187FF05C00E945F
:103A2000591B81958093E0011C1624F40E94591BB8
:103A30008093E1018091E10187FF05C00E94591B3D
:103A400081958093E1016091E001662339F1C09195
:103A5000E101CC2319F1772767FD7095872F972F08
:103A60000E94E61F23E333E343E35FE30E944A201F
:103A70000E94B31F6093E0016C2F772767FD70955C
:103A8000872F972F0E94E61F23E333E343E35FE38F
:103A90000E944A200E94B31F6093E1011D1624F486
:103AA0000E94A21B8093E2018091E20187FF05C082
:103AB0000E94A21B81958093E201111624F40E94BA
:103AC000A21B8093E3018091E30187FF05C00E9460
:103AD000A21B81958093E301DF91CF911F910C94FC
:103AE000C81C9F3F09F08ECF96CFDF91CF911F91D9
:103AF0000895EFEDF1E085E0DF011D928A95E9F789
:103B00001092DE011092DD010895833081F128F4D6
:103B1000813059F08230D1F00895853009F449C0E0
:103B2000B8F1863009F456C0089580911301262F0C
:103B300030E0280F311D2F3F310524F4680F6093CA
:103B4000130108958FEF809313010895809112015E
:103B5000262F30E0280F311D2F3F310524F4680F48
:103B60006093120108958FEF809312010895809160
:103B70001101262F30E0280F311D2F3F310524F48D
:103B8000680F6093110108958FEF809311010895DC
:103B900080911001262F30E0280F311D2F3F310575
:103BA00024F4680F6093100108958FEF8093100143
:103BB000089580910F01262F30E0280F311D2F3FEF
:103BC000310524F4680F60930F0108958FEF8093FF
:103BD0000F01089580910E01262F30E0280F311D2E
:103BE0002F3F310524F4680F60930E0108958FEF85
:103BF00080930E010895833011F128F4813049F04B
:103C0000823091F00895853081F120F18630C1F144
:103C1000089580911301681720F4861B8093130187
:103C2000089510921301089580911201681720F4ED
:103C3000861B8093120108951092120108958091BD
:103C40001101681720F4861B8093110108951092CA
:103C50001101089580911001681720F4861B80934C
:103C60001001089510921001089580910F016817B6
:103C700020F4861B80930F01089510920F01089580
:103C800080910E01681720F4861B80930E01089521
:103C900010920E01089580E00895CF939091E7016E
:103CA000913009F401C1C82F913020F0923009F40D
:103CB00009C14FC1E0910C01F0910D018081823268
:103CC00009F049C18C2F0E944B1E811148C18C2FD5
:103CD00090E0FC013697E334F10508F0E2C0E059CA
:103CE000FF4F0C94E9200E943E1B0E94501B37C1DD
:103CF0000E94640C892B49F00E94640C9093E501AA
:103D00008093E40180E090E004C08091E401909110
:103D1000E5010E945F0C23C18091D801817F8E7FD5
:103D20008093D80181E08093E70119C10E9480113E
:103D30002FEF83ED90E3215080409040E1F700C0E9
:103D400000000E9436190BC18091D80180FF11C07C
:103D5000817F8E7F11C08091D80181FB222720F9BD
:103D600091E0922790FB81F98093D801992309F47F
:103D7000F6C08091D80181608093D801F0C0809115
:103D8000D80182FB222720F991E0922790FB82F94B
:103D9000EBCF8091D80183FB222720F991E0922775
:103DA00090FB83F9E1CF8091D4019091D501A0914E
:103DB000D601B091D701BF93AF939F938F938CEEB1
:103DC00096E09F938F930E946B040F900F900F903B
:103DD0000F900F900F90C3C00E94690C1F928F9399
:103DE00082ED96E09F938F930E946B0480910A016D
:103DF0001F928F938BEB96E09F938F930E946B049F
:103E0000809156011F928F9388EA96E09F938F933B
:103E10000E946B048DB79EB70C960FB6F8949EBFA8
:103E20000FBE8DBF9CC00E94801190910B0181E05C
:103E3000892780930B0193C081E890E00E948B0C4E
:103E40009FEF21EE84E0915020408040E1F700C0D8
:103E5000000080E090E00E948B0C9FEF29E688E153
:103E6000915020408040E1F700C0000078C061E040
:103E700070E080E090E010C0CD5101C0C95381E0F6
:103E800090E0A0E0B0E0BC01CD0104C0660F771F58
:103E9000881F991FCA95D2F70E943D150E94801174
:103EA0005EC080E081705DC0843149F0893239F0B4
:103EB000803109F052C082E08093E7014EC0109239
:103EC000E7014BC0893291F120F5843179F1B0F4EA
:103ED000873009F042C08EE18093130182E3809322
:103EE00012018AE08093110184E18093100188E03F
:103EF00080930F0188E280930E012FC0CE51CA300B
:103F000060F5EC2FF0E0E85DFE4F80818093E601E4
:103F100024C08E34C1F020F48B34F9F46AE00EC072
:103F2000813551F08235C9F461E008C01092E60194
:103F300081E08093E70115C061E006C08091E60151
:103F40000E94851D0AC06AE08091E6010E94FB1D67
:103F500004C01092E70180E004C081E002C081E06B
:103F6000A1CFCF91089504D06894B1118DC0089568
:103F700070D088F09F5790F0B92F9927B751A0F0D3
:103F8000D1F0660F771F881F991F1AF0BA95C9F7ED
:103F900012C0B13081F077D0B1E0089574C0672FBE
:103FA000782F8827B85F39F0B93FCCF3869577959D
:103FB0006795B395D9F73EF4909580957095619586
:103FC0007F4F8F4F9F4F0895E89409C097FB3EF4B1
:103FD00090958095709561957F4F8F4F9F4F992356
:103FE000A9F0F92F96E9BB279395F69587957795D4
:103FF0006795B795F111F8CFFAF4BB0F11F460FF94
:104000001BC06F5F7F4F8F4F9F4F16C0882311F0EB
:1040100096E911C0772321F09EE8872F762F05C0FF
:10402000662371F096E8862F70E060E02AF09A959A
:10403000660F771F881FDAF7880F9695879597F98F
:10404000089557FD9058440F551F59F05F3F71F088
:104050004795880F97FB991F61F09F3F79F08795EF
:104060000895121613061406551FF2CF4695F1DF78
:1040700008C0161617061806991FF1CF8695710508
:10408000610508940895E894BB2766277727CB013C
:1040900097F908950BD078C069D028F06ED018F049
:1040A000952309F05AC05FC01124EECFCADFA0F3F8
:1040B000959FD1F3950F50E0551F629FF001729FBD
:1040C000BB27F00DB11D639FAA27F00DB11DAA1FDC
:1040D000649F6627B00DA11D661F829F2227B00D29
:1040E000A11D621F739FB00DA11D621F839FA00DB4
:1040F000611D221F749F3327A00D611D231F849F04
:10410000600D211D822F762F6A2F11249F5750405A
:104110008AF0E1F088234AF0EE0FFF1FBB1F661FF5
:10412000771F881F91505040A9F79E3F510570F0AE
:1041300014C0AACF5F3FECF3983EDCF386957795E9
:104140006795B795F795E7959F5FC1F7FE2B880FA9
:10415000911D9695879597F9089597F99F6780E83F
:1041600070E060E008959FEF80EC089500240A94C9
:104170001616170618060906089500240A94121642
:104180001306140605060895092E0394000C11F475
:10419000882352F0BB0F40F4BF2B11F460FF04C022
:1041A0006F5F7F4F8F4F9F4F089597FB072E16F439
:1041B000009407D077FD09D00E94EF2007FC05D0BE
:1041C0003EF4909581959F4F0895709561957F4F2E
:1041D0000895EE0FFF1F0590F491E02D0994AA1B9E
:1041E000BB1B51E107C0AA1FBB1FA617B70710F0E2
:1041F000A61BB70B881F991F5A95A9F78095909514
:10420000BC01CD010895F999FECF92BD81BDF89A08
:10421000992780B50895A8E1B0E042E050E00C9401
:104220002621262FF999FECF1FBA92BD81BD20BD50
:104230000FB6F894FA9AF99A0FBE019608950E9463
:104240001121272F0C941221DC01CB01FC01F999DB
:10425000FECF06C0F2BDE1BDF89A319600B40D92D2
:0C42600041505040B8F70895F894FFCF8B
:10426C00C20550062D06F905C5050101C201280835
:10427C00140A321E3F4D363969061C06E605AD059B
:10428C004005590572058B05010203040506070854
:02429C00090017
:00000001FF
