:100000000C9464030C94A8030C94A8030C94A80308
:100010000C94A8030C94A8030C94A8030C94A803B4
:100020000C94A8030C94A8030C94E2080C94A80365
:100030000C94A7190C94A8030C94A8030C94A8037F
:100040000C94A8030C94A8030C94A8030C94A80384
:100050000C94A8030C942B190C94A8030C94A803DB
:100060000C94A8030C94A8030C94A8030C94A80364
:100070000C94A8030C94A8030C94A8030C94A80354
:100080000C94A8030C94A8030C94A8030C94A80344
:100090000C94A8030C94A8030C94A8030C94A80334
:1000A0000C94A8030C94A8030C94A803B11EC91EB9
:1000B000981E681F681FCC1F681F681FDE1E681F00
:1000C000E81E3A1F681F681F681F681F131FFA1E6B
:1000D000681FCC1F681FD41E681F681F601F601F29
:1000E000601F601F601F601F601F601F601F5E1F1A
:1000F000681F5E1F681F681F681F681F681F681FD2
:10010000681F681F681F681F681F5E1F681F681FC1
:10011000CC1F9D1E631F631F631F631F631F631F2D
:10012000631F631F631F631F631F631F431F681FDA
:10013000BB1EF1A1F1A2F1A3F1A4F1A526022702B1
:10014000248A0000292BC0E1E30000002109C10638
:1001500016000000201AE21B150000001E003500EA
:100160000000000000000000000000002213001941
:10017000170000001F14E01D04000000230A2C05D6
:10018000070000002618883608000000250FC2105E
:1001900011000000240D000E0B000000271CE637A4
:1001A0000C0000002A004FC72800000035305152D3
:1001B000310000002D33C038120000002E2F508770
:1001C00034000000A5390101010000003D010101DA
:1001D000010000003C010101A90000003A000100FB
:1001E0000000000000000000000000003E010001CF
:1001F000010000003B010101AA0000003F010101D4
:10020000010000004246014D4A0000004101015634
:100210005400000040010057550000004347014EC4
:100220004B0000004C000101580000004901010191
:1002300001000000444801515000000045520101F6
:100240004F000000A5010101010000003D01010176
:10025000C30000003C010101010000003A00010060
:100260000000000000000000000000003E0100014E
:10027000C40000003B010101010000003F01010139
:1002800001000000427101015200000041700101B3
:10029000510000004001002A50000000437201019B
:1002A0004F0000004C00010128000000490101013D
:1002B00001000000447301014C00000045010101F0
:1002C00001000000A5010101010000003D690101DC
:1002D000010000003C610101010000003A00010042
:1002E0000000000000000000000000003E010001CE
:1002F000010000003B010162010000003F01015DBF
:1003000001000000429101606E0000004190015F19
:100310006B0000004001005E68000000435B0101CB
:100320006C0000004C00010128000000490101019F
:1003300001000000445C01016D0000004501010165
:1003400001000000A50101010100000001010101FF
:100350000100000001010101010000000100010095
:10036000000000000000000000000000010100018A
:100370000100000001010101010000000101010173
:1003800001000000262201011F00000025210101BB
:100390001E000000240100012700000001230101CC
:1003A00020000000010001012800000001010101FE
:1003B0000100000001010101010000000101010133
:1003C00001000000A501010101000000010101017F
:1003D0000100000001010101010000000100010015
:1003E000000000000000000000000000010100010A
:1003F00001000000010101010100000001010101F3
:1004000001000000013001C62D000000012F01C5D0
:100410005700000001010001550000000101010129
:100420003800000001000101280000000101010165
:1004300001000000010101010100000001010101B2
:1004400001000000292BC0E1E30000002108C106E3
:1004500007000000201AE21B160000001E003500F5
:10046000000000000000000000000000221500193C
:10047000090000001F14E01D0400000023172C05D4
:100480000A000000260C88360E0000002518C21055
:100490000D000000241C00110B0000002712E6379D
:1004A0000F0000002A004FC7280000008930515279
:1004B000310000002D13C038330000002E2F50876C
:1004C0003400253032583A20253038620A001203B1
:1004D000480048004B00420020006D006F0064009F
:1004E00000000E0374002E006D002E006B002E0025
:1004F00000000403090409026D00040100A0320990
:100500000400000103010100092111010001223F43
:10051000000705810308000A090401000103010224
:1005200000092111010001224D0007058203080086
:100530000A09040200010300000009211101000161
:100540002236000705830308000A0904030001039B
:100550000000000921110100012239000705840370
:100560001000011201100100000008EDFEFECA0497
:10057000010102000105010906A101050719E02991
:10058000E715002501950875018102050819012963
:1005900005950575019102950175039101050719EE
:1005A00000297715002501957875018102C00501A4
:1005B0000980A101850216010026B7001A01002A50
:1005C000B700751095018100C0050C0901A10185D6
:1005D00003160100269C021A01002A9C0275109540
:1005E000018100C005010902A1010901A10005095D
:1005F000190129051500250195057501810295014F
:10060000750381010501093009311581257F9502A6
:100610007508810609381581257F950175088106C1
:10062000050C0A38021581257F950175088106C0E1
:10063000C005010906A101050719E029E7150025F4
:100640000195087501810295017508810105081958
:100650000129059505750191029501750391010523
:1006600007190029FF150025FF950675088100C0B0
:1006700074696D65725F636F756E743A20253034EE
:100680006C580A00686F73745F6B6579626F617292
:10069000645F6C65647328293A2025580A006B65ED
:1006A00079626F6172645F70726F746F636F6C3ABE
:1006B0002025580A006B6579626F6172645F696416
:1006C0006C653A2025580A0011241FBECFEFDAE0EE
:1006D000DEBFCDBF04B603FE24C08091F601909129
:1006E000F701A091F801B091F9018730904BA74034
:1006F000B04BB9F41092F6011092F7011092F80184
:100700001092F90114BE84B7877F84BF88E10FB6C9
:10071000F89480936000109260000FBEE0E0F8E370
:10072000099511E0A0E0B1E0E8EAF2E402C005902A
:100730000D92A233B107D9F711E0A2E3B1E001C0F5
:100740001D92A63FB107E1F70E9427070C945221A2
:100750000C940000FF93EF93E091D901F091DA013E
:10076000309709F00995EF91FF910895FC0185916B
:10077000803011F0EFDFFBCF0895FF27E0E230E299
:1007800047FF0CC0419597FF09C0EDE26095709559
:1007900080959095611D711D811D911D27FF02C0DF
:1007A000219530E350E2AA27660F771F881F991F13
:1007B000AA1FA41710F0A41B63955A95A9F7AA3095
:1007C00008F0A95FA05DAF93F395611571058105F0
:1007D000910541F7ED3211F4EF93F395F21718F408
:1007E0003F93F395FBCF8F91B5DFFA95E1F708952D
:1007F000E991F9918591803021F0853219F0AADFD5
:10080000F9CF089520E0E89455915532C1F3503363
:1008100011F4689455915A3348F4505390F3220FD1
:10082000022E220F220F200D250FF4CF0EF421955A
:1008300089919991533619F3533729F1533559F169
:10084000BC0188279927E8945C3621F48991999115
:1008500068945591543639F446EF7EF077FF0DC019
:100860008FEF9FEF0AC055374AE039F0583540E125
:1008700021F0523642E009F00895FF93EF937DDFB7
:10088000EF91FF91B7CFFF93EF93FC0181918030FF
:10089000B9F360DFFBCFFF93EF9368DFF1CFDF9316
:1008A000CF93CDB7DEB72596A3DFCF91DF91089523
:1008B000E72FF0E090E1899FE00DF11D112483E026
:1008C000EE0FFF1F8A95E1F7E60FF11DEE5BFE4F7D
:1008D00084910895E82FF0E0EE0FFF1FEE54F040F2
:1008E00025913491C90108958FEF84B915B85798AF
:1008F0005F9A549A5C9A87B1806C87B988B1806C92
:1009000088B92E9A2F98E2E3F1E0119281E0E23467
:10091000F807D9F7E2E4F1E0119281E0E235F80757
:10092000D9F782E391E0909353018093520182E4DE
:1009300091E090935501809354010895CF93DF93F4
:1009400080915401909155012091520130915301B1
:100950003093550120935401909353018093520199
:1009600080E090E061E070E07BC0E5B1E07CEA2BE4
:10097000A901F3E0440F551FFA95E1F7E42BE5B91F
:1009800048B14F73CC2311F0406401C0406848B9AE
:100990004AE14A95F1F700C0E0915401F091550108
:1009A000E80FF91F408150E0022E02C0559547958F
:1009B0000A94E2F740FD2F9AE5E3EA95F1F700008B
:1009C000D6B52E98FAE1FA95F1F700C0E091520100
:1009D000F0915301E80FF91FAB01022E01C0440F43
:1009E0000A94EAF74F9B04C040955081542302C0FB
:1009F0005081542B508346B5ED2FF0E04D1718F081
:100A000046B550E004C046B550E041505F4F4E1B24
:100A10005F0B4630510570F0E0915401F0915501A3
:100A2000E80FF91F4081E0915201F0915301E80F66
:100A3000F91F40834AE14A95F1F700C02F982E9A9A
:100A4000EBE2F1E03197F1F700C000002F5F3F4F7C
:100A50002830310509F089CF01968031910541F0A8
:100A600020E030E0DC01A770BB27C82FC8707DCF25
:100A700081E0DF91CF910895E0915201F09153010F
:100A8000E80FF11D808108950F931F93CF93DF939B
:100A9000C0E0D0E002EC14E0E0915201F09153018B
:100AA000EC0FFD1F80810E94B1191F928F93DF937D
:100AB000CF931F930F930E944F0421960F900F9096
:100AC0000F900F900F900F90C031D10529F7DF9153
:100AD000CF911F910F910895569A81FF02C05E9A9F
:100AE00008955E980895809167010895CF93DF93EC
:100AF00000D01F92CDB7DEB72091ED01243021F553
:100B000023E029839B838A832093E9008FEF06C02B
:100B100095ED9A95F1F70000882329F09091E8006F
:100B2000815095FFF5CF8091E80085FF0DC040E032
:100B300050E063E070E0CE0101960E94AD09809123
:100B4000E8008E778093E8000F900F900F90DF9170
:100B5000CF910895CF93DF9300D01F92CDB7DEB72A
:100B60002091ED01243029F522E029839B838A839B
:100B700083E08093E9008FEF06C095ED9A95F1F739
:100B80000000882329F09091E800815095FFF5CF6F
:100B90008091E80085FF0DC040E050E063E070E028
:100BA000CE0101960E94AD098091E8008E77809376
:100BB000E8000F900F900F90DF91CF910895209152
:100BC000ED012430F9F422E02093E9002FEF06C074
:100BD00035ED3A95F1F70000222329F03091E80035
:100BE000215035FFF5CF2091E80025FF0BC040E0F4
:100BF00050E065E070E00E94AD098091E8008E77DA
:100C00008093E8000895CF93DF93EC018091ED018C
:100C1000843009F044C090910B019923C1F0809376
:100C2000E9008FEF06C095E19A95F1F7000088235F
:100C300029F09091E800815095FFF5CF8091E80070
:100C400085FF2DC040E050E060E170E018C081E019
:100C50008093E9008FEF06C095ED9A95F1F70000BB
:100C6000882329F09091E800815095FFF5CF80917D
:100C7000E80085FF14C040E050E068E070E0CE017D
:100C80000E94AD098091E8008E778093E80080E1B2
:100C9000FE01A7E5B1E001900D928A95E1F7DF91A1
:100CA000CF91089508950895089508950C94A51975
:100CB000089542E061EC81E00E94E20742E061ECCD
:100CC00082E00E94E20742E061EC83E00E94E207DA
:100CD00042E161EC84E00C94E2078091EF01833003
:100CE00009F456C030F4813071F0823009F0AEC0A2
:100CF00095C08A3009F482C08B3009F461C0893014
:100D000009F0A4C020C08091EE01813A09F09EC094
:100D10008091E800877F8093E8008091F2019091B4
:100D2000F301892B21F060E080E090E003C060E1F6
:100D300087E591E070E00E94FE098091E8008B77E2
:100D40008093E80008958091EE01813209F07EC021
:100D50008091F2019091F301009719F0039709F047
:100D600075C08091E800877F8093E80005C080917E
:100D7000ED01882309F46AC08091E80082FFF7CF73
:100D80008091F100809367018091E8008B775AC0D1
:100D90008091EE01813A09F059C08091F201909161
:100DA000F301892B09F052C08091E800877F80937E
:100DB000E8008091E80080FFFCCF80910A013DC0EF
:100DC0008091EE01813209F041C08091F201909151
:100DD000F301892BD9F58091E800877F8093E800A3
:100DE0000E9419089091F00181E0911101C080E00A
:100DF00080930A0180930B010C9497118091EE016E
:100E0000813221F58091E800877F8093E8000E947D
:100E100019088091F1018093560108958091EE01A7
:100E2000813AA1F48091E800877F8093E800809167
:100E3000E80080FFFCCF809156018093F100809103
:100E4000E8008E778093E8000C941908089584B721
:100E5000877F84BF88E10FB6F8948093600010927A
:100E600060000FBE90E080E80FB6F89480936100B8
:100E7000909361000FBE0E946C080E94C908809187
:100E8000E20084608093E200789402C00E942D0CFE
:100E90008091ED018430D1F70E94A20C80E091E0B6
:100EA0000E944A0C0BC00E9473198091EB018823A9
:100EB00029F00E94951981110E94CC078091ED01C3
:100EC000853089F30E94AA0C0E942D0CF7CF292FA0
:100ED000332723303105B1F04CF42130310509F4CA
:100EE0004DC02230310509F04EC007C02132310516
:100EF00041F12232310591F146C0EDE6F0E086EF96
:100F000094E045C099278130910569F082309105C0
:100F100089F0892B09F037C0E2EFF4E0E491F0E0CA
:100F200082EF94E034C0E2EEF4E0E491F0E082EE8F
:100F300094E02DC0EEECF4E0E491F0E08EEC94E06F
:100F400026C0643000F5E62FF0E0EE0FFF1FEC5EE8
:100F5000FE4F80819181E9E0F0E019C0643098F49F
:100F6000E62FF0E0DF01AA0FBB1FA45EBE4F8D91FC
:100F70009C91EC5DFE4FE081F0E009C0E2E1F0E021
:100F800083E695E004C0E0E0F0E080E090E0DA0184
:100F90008D939C93CF01089580E189BD82E189BD45
:100FA00009B400FEFDCF8091D8008F7D8093D800DA
:100FB0008091E00082608093E0008091E00081FDFC
:100FC000FCCF0895982F2CC09093E900981739F022
:100FD0007091EC002091ED005091F00003C0242F9F
:100FE000762F50E021FD02C09F5F1AC03091EB00C8
:100FF0003E7F3093EB003091ED003D7F3093ED006C
:101000003091EB0031603093EB007093EC00209353
:10101000ED005093F0002091EE0027FDE5CF07C0D2
:10102000973090F28F708093E90081E0089580E01E
:1010300008958091EE0187FD05C08091E80080FF52
:101040000EC012C08091E80082FD05C08091ED01C4
:101050008111F8CF08958091E8008B7708C08091C6
:10106000ED018111EACF08958091E8008E77809399
:10107000E80008958091E4009091E50045E6209114
:10108000EC0020FD1FC023C02091ED01222391F030
:10109000253091F02091EB0025FD10C02091E40057
:1010A0003091E5002817390751F34150C90139F74C
:1010B00084E0089582E0089583E0089581E0089532
:1010C00080E008952091E80020FFDECFF9CF209145
:1010D000E80022FFD9CFF4CF0E94D5080E94DD0896
:1010E000E0EEF0E0808181608083E8EDF0E08081D7
:1010F0008F77808319BCA7EDB0E08C918E7F8C93A5
:1011000080818F7E80831092EC0108950F931F934E
:10111000CF93DF930E94D5080E94DD08C8EDD0E090
:1011200088818F77888388818068888388818F7D94
:10113000888319BC1092ED011092E9011092EB0125
:101140001092EA0100EE10E0F80180818B7F80832D
:1011500088818160888342E060E080E00E94E2074D
:10116000E1EEF0E080818E7F8083E2EEF0E080812E
:1011700081608083808188608083F80180818E7F98
:101180008083888180618883DF91CF911F910F9147
:101190000895E7EDF0E080818160808384E082BF84
:1011A00081E08093EC010C948608E8EDF0E080810A
:1011B0008E7F80831092E20008951092DA001092E0
:1011C000E10008951F920F920FB60F9211242F93F2
:1011D0003F934F935F936F937F938F939F93AF93BF
:1011E000BF93EF93FF938091E10082FF0BC080914A
:1011F000E20082FF07C08091E1008B7F8093E100D5
:101200000E9458068091DA0080FF1FC08091D800AC
:1012100080FF1BC08091DA008E7F8093DA0080917E
:10122000D90080FF0DC080E189BD82E189BD09B48C
:1012300000FEFDCF81E08093ED010E94520605C0C3
:1012400019BC1092ED010E9453068091E10080FFCD
:1012500019C08091E20080FF15C08091E2008E7F6E
:101260008093E2008091E20080618093E2008091AF
:10127000D80080628093D80019BC85E08093ED018E
:101280000E9455068091E10084FF2EC08091E2000B
:1012900084FF2AC080E189BD82E189BD09B400FED6
:1012A000FDCF8091D8008F7D8093D8008091E100A0
:1012B0008F7E8093E1008091E2008F7E8093E20038
:1012C0008091E20081608093E2008091E9018111C8
:1012D00004C08091E30087FF02C084E001C081E088
:1012E0008093ED010E9456068091E10083FF24C0A7
:1012F0008091E20083FF20C08091E100877F80938E
:10130000E10082E08093ED011092E9018091E1001B
:101310008E7F8093E1008091E2008E7F8093E200D7
:101320008091E20080618093E20042E060E080E032
:101330000E94E2070E945406FF91EF91BF91AF9186
:101340009F918F917F916F915F914F913F912F91DD
:101350000F900FBE0F901F901895BF92CF92DF9203
:10136000EF92FF920F931F93CF93DF937C018B013A
:10137000EA010E943A08B82E811135C0209731F059
:1013800028813981021B130BE20EF31EC12CD12CD4
:1013900025C08091E80085FD17C08091E8008E7718
:1013A0008093E8000E942D0C209749F08881998154
:1013B0008C0D9D1D9983888325E0B22E14C00E9458
:1013C0003A08882359F00EC0F70181917F0180937C
:1013D000F10001501109FFEFCF1ADF0A01151105C5
:1013E000C1F601C0B82E8B2DDF91CF911F910F91C7
:1013F000FF90EF90DF90CF90BF9008954091F4015F
:101400005091F5014617570748F06115710539F4F9
:101410004091E8004E774093E80001C0BA01FC011A
:1014200040E033C08091ED01882309F442C085304B
:1014300009F441C08091E80083FD39C08091E80043
:1014400082FD2FC08091E80080FF1FC09091F300C3
:101450008091F200392F20E0A901482BCA0106C073
:1014600041914093F1006150710901966115710538
:1014700019F088309105A0F341E0089709F040E0A9
:101480008091E8008E778093E8006115710551F630
:101490004111C8CF06C08091ED01882351F08530FD
:1014A00051F08091E80082FFF6CF80E0089581E05E
:1014B000089582E0089583E008954091F4015091E9
:1014C000F5014617570748F06115710539F4409149
:1014D000E8004E774093E80001C0BA01FC0140E00B
:1014E00034C08091ED01882309F443C0853009F4AC
:1014F00042C08091E80083FD3AC08091E80082FDFF
:1015000030C08091E80080FF20C09091F30080916E
:10151000F200392F20E0A901482BCA0107C04491ED
:101520004093F10031966150710901966115710582
:1015300019F08830910598F341E0089709F040E0F0
:101540008091E8008E778093E8006115710549F677
:101550004111C7CF06C08091ED01882351F085303D
:1015600051F08091E80082FFF6CF80E0089581E09D
:10157000089582E0089583E00895EF92FF920F931B
:101580001F93CF93DF93CDB7DEB7AC970FB6F89428
:10159000DEBF0FBECDBFEEEEF1E08091F100819392
:1015A00021E0E63FF207C9F70E946D068091E8004E
:1015B00083FF38C18091EE019091EF01953009F4DD
:1015C00088C038F49130B1F170F0933009F02AC13D
:1015D00031C0983009F4F9C0993009F405C196304A
:1015E00009F020C19EC0803821F0823809F01AC16C
:1015F00008C08091EA019091EB01992389F0826003
:101600000FC08091F2019091F3018F709927809320
:10161000E9008091EB0085FB882780F91092E900B2
:101620009091E800977F9093E8008093F1001092EA
:10163000F100D6C0882319F0823009F0F3C08F7111
:1016400021F0823009F0EEC00BC08091F0018130B2
:1016500009F0E8C0933009F080E08093EB012FC0DF
:101660008091F00181112BC08091F2019091F301E2
:101670008F709927009709F4D5C08093E9002091D5
:10168000EB0020FF1CC02091EF01233021F480915A
:10169000EB00806212C09091EB0090619093EB00A0
:1016A00021E030E001C0220F8A95EAF72093EA009A
:1016B0001092EA008091EB0088608093EB0010921A
:1016C000E9008091E800877F8093E8000E94190874
:1016D000A9C08111A7C00091F0011091F1010F770D
:1016E0001127E02EFFB6F8948091E800877F809361
:1016F000E8000E9419088091E80080FFFCCF8091EB
:10170000E3008078802B8093E30080688093E3007F
:10171000EE2011F083E001C082E08093ED01FFBE76
:1017200081C08058823008F07DC08091F001909196
:10173000F1018C3D23E0920779F583E08A838AE208
:1017400089834FB7F894DE01139620E03EE051E222
:10175000E32FF0E050935700E49120FF03C0E2959F
:10176000EF703F5FEF708E2F90E0EA3010F0C79679
:1017700001C0C0968D939D932F5F243149F74FBFD1
:101780008091E800877F8093E8006AE270E0CE01F4
:1017900001960E94FE0913C0AE01455D5F4F609146
:1017A000F2010E9467070097E9F12091E800277F86
:1017B0002093E800BC018BA59CA50E945D0A809146
:1017C000E8008B778093E8002DC0803859F5809130
:1017D000E800877F8093E8008091E9018093F10021
:1017E0008091E8008E7770CF81111CC09091F0013C
:1017F0009230C0F48091E800877F8093E800909356
:10180000E9010E9419088091E901811104C08091C9
:10181000E30087FF02C084E001C081E08093ED0116
:101820000E9459068091E80083FF0AC08091EB0076
:1018300080628093EB008091E800877F8093E800CE
:10184000AC960FB6F894DEBF0FBECDBFDF91CF913F
:101850001F910F91FF90EF900895CF938091ED012C
:101860008823B1F08091E9008F709091EC0090FF97
:1018700002C090E801C090E0C92FC82B1092E90087
:101880008091E80083FD0E94BD0ACF70C093E900FB
:10189000CF91089590936901809368010895809194
:1018A0006801909169010895E0916801F0916901E2
:1018B000309721F00190F081E02D099480E00895A7
:1018C000E0916801F0916901309721F00280F38185
:1018D000E02D09940895E0916801F0916901309735
:1018E00021F00480F581E02D0994089520916A018A
:1018F00030916B018217930771F090936B01809385
:101900006A01E0916801F0916901309721F0068049
:10191000F781E02D0994089520916C0130916D01BB
:101920008217930771F090936D0180936C01E091A1
:101930006801F0916901309721F00084F185E02D74
:10194000099408950E94E7180E9474040C94041AE4
:101950000C946C05CF92DF92EF92FF920F931F933E
:10196000CF93DF93CDB7DEB72B970FB6F894DEBFDA
:101970000FBECDBF0E949E043EE6E32E31E0F32E63
:1019800000E010E0C02E802F0E943C05F701D190AE
:101990007F01D82631F40F5F1F4F0031110591F7F9
:1019A00041C09091D80191FF04C08B870E944405EB
:1019B0008B8520E030E04D2D50E0922FBA01022EB1
:1019C00002C0759567950A94E2F760FF25C02E83E3
:1019D000CF82EE24E394F12C02C0EE0CFF1C9A950A
:1019E000E2F790E08E219F2121E0892B09F420E08D
:1019F00028870E94F0188160782F9A8789874E8106
:101A00005F8168858A850E944D0DF801E259FE4F7D
:101A100080818E25808316C02F5F3F4F283031058F
:101A200061F6B9CF8FEF89838A831B820E94F018F9
:101A30008160782F9D838C8349815A816B818D8150
:101A40000E944D0D0E94EA1C10917E010E94540CD0
:101A50001817A1F00E94540C80937E012B960FB6AC
:101A6000F894DEBF0FBECDBFDF91CF911F910F91D4
:101A7000FF90EF90DF90CF900C94A80C2B960FB6B0
:101A8000F894DEBF0FBECDBFDF91CF911F910F91B4
:101A9000FF90EF90DF90CF900895CF93DF93CDB775
:101AA000DEB72B970FB6F894DEBF0FBECDBF4F83C6
:101AB000588769877A878B87DE01119686E0FD015A
:101AC00011928A95E9F785E0FE01379601900D9213
:101AD0008A95E1F749815A816B817C818D819E8154
:101AE0000E9453142B960FB6F894DEBF0FBECDBFE5
:101AF000DF91CF910895CF93C82F882309F498C020
:101B00008450813A48F48C2F0E94731E811190C03A
:101B10008C2F0E94B8160DC08C2F805E883060F428
:101B2000C77081E090E001C0880FCA95EAF70E9473
:101B30003217CF910C9475178C2F855A833078F417
:101B4000C53A29F0C63A31F482E890E005C081E850
:101B500090E002C083E890E0CF910C94760C8C2F3B
:101B6000885A833108F064C0C83A39F1C93A41F162
:101B7000CA3A49F1CB3A51F1CC3A59F1CD3A61F137
:101B8000C03B69F1CE3A71F1CF3A79F1C13B81F1B5
:101B9000C23B89F1C33B91F1C43B99F1C53BA1F133
:101BA000C63BA9F1C73BB1F1C83BB9F1C93BC1F193
:101BB000CA3BC9F58AE292E038C082EE90E035C0B7
:101BC00089EE90E032C08AEE90E02FC085EB90E085
:101BD0002CC086EB90E029C087EB90E026C08CEC0F
:101BE00090E023C08DEC90E020C083E891E01DC020
:101BF0008AE891E01AC082E991E017C084E991E097
:101C000014C081E292E011C083E292E00EC084E24F
:101C100092E00BC085E292E008C086E292E005C047
:101C200087E292E002C080E090E0CF910C948C0CAF
:101C3000CF910895882331F1982F9450913A18F458
:101C40000E94F5160EC0982F905E983060F4282FF1
:101C5000277081E090E001C0880F2A95EAF70E9482
:101C600038170C947517982F955A933020F480E00C
:101C700090E00C94760C885A833120F480E090E058
:101C80000C948C0C0895882321F00E9432170C9438
:101C900075170895882321F00E9438170C94751742
:101CA0000895BF92CF92DF92EF92FF920F931F930E
:101CB000CF93DF93CDB7DEB727970FB6F894DEBF8B
:101CC0000FBECDBF8C0185E0F801DE0111960190B9
:101CD0000D928A95E1F7F80130812181F2805581DA
:101CE00052955F7083819481892B39F02F3F41F4A5
:101CF00081E090E03F3F31F003C081E090E002C01E
:101D000080E090E080FDF1C239832A8389819A8145
:101D10005E830E947516B92E8F830E9474160E94EE
:101D20009C152B2D22952F7030E05E816F81253020
:101D3000310509F4F3C06CF4243031050CF0AFC068
:101D40004B2D407F8B2D8F70223031050CF043C01E
:101D500015C02C3031054CF42A3031050CF0F4C19B
:101D60002830310509F0C1C2F2C02C30310509F428
:101D700092C22F30310509F0B8C2A3C2182F411109
:101D800001C002C01295107FFF2059F0112309F401
:101D90005BC2812F6F830E9442170E9475176F816B
:101DA00053C2862F0E941A0E112309F49EC2812F5E
:101DB0000E94481727960FB6F894DEBF0FBECDBF1E
:101DC000DF91CF911F910F91FF90EF90DF90CF9017
:101DD000BF900C947517403211F08295807F662376
:101DE00019F0613071F523C0FF20B1F0511101C02D
:101DF00032C0513081F527960FB6F894DEBF0FBE82
:101E0000CDBFDF91CF911F910F91FF90EF90DF90A9
:101E1000CF90BF900C945217511101C003C05130A4
:101E200009F463C28E830E945B178E8127C0FF2056
:101E300021F0563008F059C20EC0553008F055C296
:101E40001DC0FF20C9F0552331F0F801958190FFA6
:101E5000FBC19F70958327960FB6F894DEBF0FBE27
:101E6000CDBFDF91CF911F910F91FF90EF90DF9049
:101E7000CF90BF900C94430E5111FBC127960FB623
:101E8000F894DEBF0FBECDBFDF91CF911F910F91B0
:101E9000FF90EF90DF90CF90BF900C944A0E2B2DC7
:101EA00026952695237030E02115310529F0213043
:101EB000310509F01AC219C0FF2021F0862F9B2D91
:101EC000937002C080E090E027960FB6F894DEBFD2
:101ED0000FBECDBFDF91CF911F910F91FF90EF907B
:101EE000DF90CF90BF900C94760CFF2021F0862FCE
:101EF0009B2D937002C080E090E027960FB6F89477
:101F0000DEBF0FBECDBFDF91CF911F910F91FF902C
:101F1000EF90DF90CF90BF900C948C0C862FFF2019
:101F200019F00E94F01B02C00E94581C27960FB6A1
:101F3000F894DEBF0FBECDBFDF91CF911F910F91FF
:101F4000FF90EF90DF90CF90BF900C94DF1C8B2D13
:101F5000837009F079C0F110C8C1262F229526950B
:101F60002770220F220F862F8F70C82ED12CE12CC4
:101F7000F12C022E04C0CC0CDD1CEE1CFF1C0A94BC
:101F8000D2F764FF10C06FE070E080E090E004C022
:101F9000660F771F881F991F2A95D2F76095709555
:101FA0008095909503C060E070E0CB012B2D2695C5
:101FB00026952370422F50E042305105D9F043302E
:101FC000510569F16C297D298E299F2941305105E0
:101FD00051F127960FB6F894DEBF0FBECDBFDF914B
:101FE000CF911F910F91FF90EF90DF90CF90BF9016
:101FF0000C94B1156C297D298E299F2927960FB63F
:10200000F894DEBF0FBECDBFDF91CF911F910F912E
:10201000FF90EF90DF90CF90BF900C94C3150E947B
:10202000B115C701B60127960FB6F894DEBF0FBEF3
:10203000CDBFDF91CF911F910F91FF90EF90DF9077
:10204000CF90BF900C949F15FF2019F08B2D8170BD
:1020500001C08695882309F448C1262F229526952C
:102060002770220F220F862F8F70C82ED12CE12CC3
:10207000F12C022E04C0CC0CDD1CEE1CFF1C0A94BB
:10208000D2F764FF10C06FE070E080E090E004C021
:10209000660F771F881F991F2A95D2F76095709554
:1020A0008095909503C060E070E0CB012B2D2695C4
:1020B00026952370422F50E042305105D9F043302D
:1020C000510569F16C297D298E299F2941305105DF
:1020D00051F127960FB6F894DEBF0FBECDBFDF914A
:1020E000CF911F910F91FF90EF90DF90CF90BF9015
:1020F0000C9450166C297D298E299F2927960FB69E
:10210000F894DEBF0FBECDBFDF91CF911F910F912D
:10211000FF90EF90DF90CF90BF900C9462160E94DA
:102120005016C701B60127960FB6F894DEBF0FBE52
:10213000CDBFDF91CF911F910F91FF90EF90DF9076
:10214000CF90BF900C943E16613F41F120F4603F68
:1021500009F075C007C0623F09F448C0633F09F049
:102160006EC047C0FF20B1F0553008F0BEC08B2DC7
:102170008F7127960FB6F894DEBF0FBECDBFDF91EB
:10218000CF911F910F91FF90EF90DF90CF90BF9074
:102190000C942316563008F0A8C0E9CFFF2099F020
:1021A0008B2D8F7127960FB6F894DEBF0FBECDBF73
:1021B000DF91CF911F910F91FF90EF90DF90CF9023
:1021C000BF900C94E9158B2D8F7127960FB6F8945C
:1021D000DEBF0FBECDBFDF91CF911F910F91FF905A
:1021E000EF90DF90CF90BF900C940416F110EBCFDE
:1021F000D7CFFF2099F08B2D8F7127960FB6F894CB
:10220000DEBF0FBECDBFDF91CF911F910F91FF9029
:10221000EF90DF90CF90BF900C94DA1527960FB611
:10222000F894DEBF0FBECDBFDF91CF911F910F910C
:10223000FF90EF90DF90CF90BF900C94D515FF20CA
:10224000A9F0552309F4ACCF862F27960FB6F89442
:10225000DEBF0FBECDBFDF91CF911F910F91FF90D9
:10226000EF90DF90CF90BF900C947B0D552309F435
:10227000AACF862F27960FB6F894DEBF0FBECDBF2C
:10228000DF91CF911F910F91FF90EF90DF90CF9052
:10229000BF900C941A0E4B2D4F70C8010E94E3188A
:1022A00027960FB6F894DEBF0FBECDBFDF91CF915A
:1022B0001F910F91FF90EF90DF90CF90BF900C9403
:1022C00009154B2D4F70C80127960FB6F894DEBF45
:1022D0000FBECDBFDF91CF911F910F91FF90EF9077
:1022E000DF90CF90BF900C94E61827960FB6F89425
:1022F000DEBF0FBECDBFDF91CF911F910F91FF9039
:10230000EF90DF90CF90BF9008950E944F170E94EA
:1023100024170E9475170E948B1D0E94DF1C80E00D
:1023200090E00E94760C80E090E00C948C0C0E946F
:102330003F170C9485110E947516292F22952F7036
:1023400030E02C3031054CF42A3031056CF4225049
:1023500031092230310570F407C02C30310531F0DD
:102360002F30310539F402C081E0089593FB8827AE
:1023700080F9089580E00895CF93DF9300D000D0D6
:102380001F92CDB7DEB70F900F900F900F900F9068
:10239000DF91CF910895CF93DF9300D000D000D08C
:1023A000CDB7DEB726960FB6F894DEBF0FBECDBF11
:1023B000DF91CF9108951F93CF93DF93C091B50123
:1023C00016E012C0D0E01C9FF0011D9FF00D1124FB
:1023D000EB57FE4F408151816281738184819581E9
:1023E0000E94CB112196C7708091B601C813EACF25
:1023F000DF91CF911F91089540917F01509180010D
:10240000609181017091820180918301909184019A
:102410000C94CB110F931F93CF93DF938091840182
:1024200082958F7009F069C080918101882309F439
:1024300064C0A091B501D091B601B0917F01C09167
:102440008001809182019091830121E030E0BF3FC3
:1024500011F020E030E0122FBC016095709506E08D
:102460004AC0009721F0CF3F29F4212F05C021E079
:1024700030E002C020E030E020FD3BC04A2F50E0B9
:10248000049FF001059FF00D1124EB57FE4F2181B1
:10249000C2132FC02081B2132CC02281211129C068
:1024A000238134812817390718F0281B390B02C003
:1024B000260F371F2C323140E0F4809184018F7059
:1024C00080618093840186E0849FF001859FF00DF8
:1024D0001124E657FE4F80818F70806180838FE7E3
:1024E00091E00E94510EDF91CF911F910F910C94BA
:1024F000DB11AF5FA770AD13B4CFDF91CF911F9108
:102500000F910895EF92FF920F931F93CF93DF9354
:10251000CDB7DEB762970FB6F894DEBF0FBECDBF62
:102520008C0185E0F801DE011D9601900D928A95DF
:10253000E1F7D8014C9111965C91119712966C912C
:1025400012971396ED90FC90149770917F01E09193
:1025500080018091820190918301009739F0EF3FD3
:1025600041F421E030E07F3F31F003C021E030E072
:1025700002C020E030E020FD5DC1209181012223D6
:1025800009F4F3C0E816F90640F09701281B390B4F
:10259000C9018C32914048F09FC0809590958E0D76
:1025A0009F1D8C32914008F097C080918401982F34
:1025B000907F09F064C0E51313C0741311C061115A
:1025C0000FC08F708061809384010E94FC118FE79F
:1025D00091E00E94510E80918401F801858342C1EF
:1025E000EF2839F05F3F41F481E090E04F3F31F058
:1025F00003C081E090E002C080E090E080FD03C075
:1026000081E0862702C080E090E080FF2FC08091AB
:10261000B5012091B60136E013C090E0389FF0017B
:10262000399FF00D1124EB57FE4F7181571306C0EF
:102630007081471303C07281671318C001968770B9
:102640008213EBCF11C19F7061F0882309F40AC196
:1026500008C09F7031F0D80115969C91907F09F4C5
:1026600001C1805E883008F4FDC0D0C0662309F443
:10267000F9C080918401816080938401F3C0E513E7
:1026800007C0741305C0611103C0F80185839CC0A5
:102690004D875E878D859E856A8B0E949B116A8916
:1026A000882309F4B3C0662309F4B0C020918401E3
:1026B000822F82958F7090E002970CF4C5C08091B4
:1026C0007F019091800198878F831986FB86EA8627
:1026D0002C87CE01079646C080918401982F907F69
:1026E00059F47E2DF98AE88A89890E94BC118FE706
:1026F00091E00E94510E94C0E51311C074130FC0F5
:1027000061110DC0F8018583C8010E94510EEFE7E9
:10271000F1E086E0DF011D928A95E9F7A1C04D87BF
:102720005E878D859E856A8B0E949B116A898823AE
:1027300009F46CC0662309F469C020918401822FDA
:1027400082958F7090E002970CF47EC080917F019B
:10275000909180019A8389831B82FD82EC822E8373
:10276000CE0101960E94510E6FC0E816F90640F0A6
:102770009701281B390BC9018C32914048F04AC09F
:10278000809590958E0D9F1D8C32914008F042C02F
:102790006623E1F1E5132DC074132BC02091840151
:1027A00020FD1EC0322F32953F70832F90E000979E
:1027B000B9F0F80125830F9739F0832F8F5F829549
:1027C000807F2F70282B2583C8010E94510E86E040
:1027D000F801AFE7B1E001900D928A95E1F73EC0B4
:1027E00086E0F801AFE7B1E001900D928A95E1F73C
:1027F00037C04D875E878D859E850E949B11811114
:1028000023C080918401816080938401C8010E946B
:10281000510E26C07E2DF98AE88A89890E94BC1152
:10282000EFE7F1E086E0DF011D928A95E9F70E946B
:10283000FC1118C0662351F34D875E878D859E85F8
:102840000E949B11882311F386E0F801AFE7B1E005
:1028500001900D928A95E1F70E940A120E94FC11E4
:1028600081E014C080E012C04D875E878D859E8513
:102870000E947516292F22952F7030E022303105E5
:102880000CF4E1CE243031050CF6E3CE62960FB69F
:10289000F894DEBF0FBECDBFDF91CF911F910F9196
:1028A000FF90EF9008951F93CF93DF93CDB7DEB7DE
:1028B0002C970FB6F894DEBF0FBECDBF4F8358875D
:1028C00069877A878B879C87CE0107960E94821240
:1028D0008823D9F02F8138858A859B85892B39F00B
:1028E0003F3F19F080E090E004C02F3FD9F781E02E
:1028F00090E0892B09F06DC04F81588569857A85F4
:102900008B859C850E94CB1164C086E0FE013796C2
:10291000DE01119601900D928A95E1F7FF81E8851D
:102920004A855B854115510539F0EF3F41F481E05F
:1029300090E0FF3F31F003C081E090E002C080E012
:1029400090E080FD46C02091B60130E0C9010196BB
:10295000877099276091B50170E08617970709F491
:1029600040C0F983EA835D834C8396E0929FD00157
:10297000939FB00D1124AB57BE4FFE0131960190CD
:102980000D929A95E1F78093B6010E94DB1121C068
:10299000189FC00111248B579E4F0E9482128823DA
:1029A00071F1E091B5011E9FF0011124EB57FE4F2C
:1029B0004081518162817381848195810E94CB1114
:1029C0008091B50190E00196877099278093B501B9
:1029D00001C016E08091B5019091B6018913D8CF5E
:1029E0000EC00E9497111092B6011092B501EFE748
:1029F000F1E086E0DF011D928A95E9F7EACF2C9697
:102A00000FB6F894DEBF0FBECDBFDF91CF911F91FF
:102A10000895DF92EF92FF920F931F93CF93DF936E
:102A2000EC01009709F46CC0D12CEE24E394F12C56
:102A30008E010F5F1F4FFE018491843748F484306C
:102A400008F04AC0813071F0823009F059C01EC0D0
:102A5000853709F43DC070F1982F9458903708F0ED
:102A60004FC03DC02296F8018491982F905E983017
:102A700050F48770FE2D01C0FF0F8A95EAF78F2F63
:102A80000E94421730C00E947B0D2DC02296F80193
:102A90008491982F905E983050F48770FE2D01C07D
:102AA000FF0F8A95EAF78F2F0E9448171CC00E94DB
:102AB0001A0E19C02296F801049107C08FE99FE011
:102AC0000197F1F700C0000001500111F7CF0BC0D2
:102AD0002296F801D49007C00E947B0D03C08F7727
:102AE0000E941A0EE8018D2D07C08150EFE9FFE02A
:102AF0003197F1F700C00000882309F499CFF5CF92
:102B0000DF91CF911F910F91FF90EF90DF9008958B
:102B10006093BB017093BC018093BD019093BE0193
:102B20000C9485116093B7017093B8018093B9013B
:102B30009093BA010C94851108950C9488150F9305
:102B40001F930091BB011091BC012091BD013091F8
:102B5000BE01602B712B822B932B1F910F910C9434
:102B600088150F931F930091BB011091BC01209118
:102B7000BD013091BE0160237123822393231F91F5
:102B80000F910C9488150F931F930091BB01109126
:102B9000BC012091BD013091BE01602771278227C1
:102BA00093271F910F910C94881560E070E0CB0182
:102BB0000C94921541E050E060E070E004C0440FD6
:102BC000551F661F771F8A95D2F7CB01BA010C9467
:102BD000921541E050E060E070E004C0440F551FE2
:102BE000661F771F8A95D2F78091B7019091B8013F
:102BF000A091B901B091BA01482B592B6A2B7B2BBC
:102C0000CB01BA010C94921541E050E060E070E015
:102C100004C0440F551F661F771F8A95D2F7409551
:102C20005095609570958091B7019091B801A091F1
:102C3000B901B091BA01482359236A237B23CB0100
:102C4000BA010C94921541E050E060E070E004C0DD
:102C5000440F551F661F771F8A95D2F78091B701E1
:102C60009091B801A091B901B091BA0148275927B4
:102C70006A277B27CB01BA010C9492150F931F93FF
:102C80000091B7011091B8012091B9013091BA01BA
:102C9000602B712B822B932B1F910F910C9492150B
:102CA0000F931F930091B7011091B8012091B901C2
:102CB0003091BA0160237123822393231F910F91D6
:102CC0000C9492150F931F930091B7011091B801C6
:102CD0002091B9013091BA0160277127822793278B
:102CE0001F910F910C9492150895CF92DF92EF925D
:102CF000FF920F931F93CF93DF93EC01C090BB0122
:102D0000D090BC01E090BD01F090BE018091B70170
:102D10009091B801A091B901B091BA01C82AD92AFD
:102D2000EA2AFB2A0FE110E0B701A601002E04C039
:102D300076956795579547950A94D2F740FF08C056
:102D4000BE01802F0E9469188130910509F007C0EB
:102D50000150110948F7BE0180E00E946918DF9117
:102D6000CF911F910F91FF90EF90DF90CF9008953A
:102D700090910B019923B9F0982F96959695969579
:102D80009F3090F5E0910C01F0910D01E90FF11DDC
:102D9000877021E030E001C0220F8A95EAF7818137
:102DA000822B8183089540910C0150910D0120E008
:102DB00030E09FEFFA01E20FF31F62816817A1F084
:102DC0009F3F19F4611101C0922F2F5F3F4F2E30AA
:102DD000310581F707C0FA01E90FF11D97FDFA955A
:102DE000828308959F3FB9F7089590910B0199232D
:102DF000C1F0982F9695969596959F3020F5E09185
:102E00000C01F0910D01E90FF11D877021E030E018
:102E100001C0220F8A95EAF720958181282321831A
:102E2000089540910C0150910D0120E030E0FA012D
:102E3000E20FF31F9281981301C012822F5F3F4F60
:102E40002E303105A1F7089581E090E0E0910C016A
:102E5000F0910D01E80FF91F108201968031910564
:102E6000A9F708959091BF01982B9093BF01089501
:102E700080959091BF0198239093BF01089510927F
:102E8000BF0108959091C001982B9093C0010895BF
:102E900080959091C00198239093C001089510925D
:102EA000C00108958093C1010E94F0189093C3015E
:102EB0008093C20108951092C1011092C301109233
:102EC000C201089540910C0150910D0120E030E0C5
:102ED00080E0FA01E20FF31F918191118F5F2F5F64
:102EE0003F4F2F303105A9F70895CF93DF93E0913D
:102EF0000C01F0910D018091BF018083E0910C01E4
:102F0000F0910D0180819091C001892B8083809187
:102F1000C101882379F10E94F018C091C201D091BB
:102F2000C3018C179D0760F00E94F0182091C20128
:102F30003091C301821B930B8C32914058F40CC02A
:102F40000E94F0189E0120953095280F391F2C32D1
:102F5000314010F00E945B17E0910C01F0910D01DF
:102F600080819091C101892B80830E946217811119
:102F70000E945B1780910C0190910D01DF91CF9120
:102F80000C94600C8B3B50F4883A00F5853AA8F419
:102F9000843080F4813009F059C009C0803E08F4C3
:102FA00055C0883E38F0803F08F450C04BC021E047
:102FB00030E08DC0282F30E08AC0853A09F449C03E
:102FC000863A09F049C022E830E481C0883A09F421
:102FD00046C0893A09F446C08A3A09F446C08B3A99
:102FE00009F446C08C3A09F446C08D3A09F446C04B
:102FF000803B09F446C08E3A09F446C08F3A09F482
:1030000046C0813B09F446C0823B09F446C0833B7D
:1030100009F446C0843B09F446C0853B09F446C028
:10302000863B09F446C0873B09F446C0883B09F457
:1030300046C0893B09F446C08A3B09F046C02AE2F3
:1030400036E445C0282F30E0306541C020E030E054
:103050003EC021E830E43BC023E830E438C022EE33
:1030600034E435C029EE34E432C02AEE34E42FC013
:1030700025EB34E42CC026EB34E429C027EB34E400
:1030800026C02CEC34E423C02DEC34E420C023E82B
:1030900035E41DC02AE835E41AC022E935E417C03A
:1030A00024E935E414C021E236E411C023E236E419
:1030B0000EC024E236E40BC025E236E408C026E266
:1030C00036E405C027E236E402C020E034E4C9015A
:1030D00008950E945804803EA8F4803C10F5813386
:1030E00009F461C038F4893209F458C08A3209F011
:1030F00067C061C08933C1F08238B1F0853309F00F
:103100005FC044C0833E61F130F4803EA9F0823E4E
:1031100009F056C017C0863E41F1873E09F050C005
:1031200030C00E946A0408959091E80190FD02C0A9
:1031300091FF46C080EE44C08091E80180FFFACF45
:1031400089E33EC08091E80182FF08C08091E801D8
:1031500084FF02C080E034C083EE32C082EE30C013
:103160008091E80182FFF2CFF9CF8091E80183FFDF
:1031700006C08091E80184FDEDCF87EE21C086EE88
:103180001FC08091E80183FFF4CFF9CF8091E8015F
:1031900085FF02C089E214C085E312C08091E80176
:1031A00085FDFACFF7CF8091E80186FF02C08AE261
:1031B00007C081E305C08091E80186FDFACFF7CF13
:1031C0000E94C217089580E090E00895089582E07B
:1031D00084BD93E095BD9AEF97BD80936E000895EE
:1031E0008FB7F8944091D4015091D5016091D601E8
:1031F0007091D7018FBFCA010895CF92DF92EF92ED
:10320000FF920F931F932FB7F8944091D4015091E0
:10321000D5016091D6017091D7012FBF6A017B0162
:10322000EE24FF248C0120E030E0C016D106E20637
:10323000F30620F09A01281B390B05C09C0120954C
:103240003095240F351FC9011F910F91FF90EF900A
:10325000DF90CF9008951F920F920FB60F92112416
:103260008F939F93AF93BF938091D4019091D50199
:10327000A091D601B091D7010196A11DB11D8093F7
:10328000D4019093D501A093D601B093D701BF91FB
:10329000AF919F918F910F900FBE0F901F90189537
:1032A0000E946C08F8942FEF87EA91E62150804045
:1032B0009040E1F700C0000087E090EBDC018093D4
:1032C000F6019093F701A093F801B093F9012CE077
:1032D00088E190E00FB6F894A895809360000FBE47
:1032E00020936000FFCFF894A89523E488E190E054
:1032F0000FB6F894A895809360000FBE20936000ED
:1033000083B7817F846083BF83B7816083BF7894F4
:10331000889583B78E7F83BF88E10FB6F89480933A
:103320006000109260000FBE0895CF930E949E042B
:10333000C0E08C2F0E943C05811104C0CF5FC031DA
:10334000C1F701C081E0CF9108950C9497111F92AD
:103350000F920FB60F9211240F900FBE0F901F9077
:1033600018958295982F9C7C96959695837344E04A
:10337000849F90011124922B892F8A7A86959575C6
:10338000990F892B0895EF92FF920F931F93CF937C
:10339000DF93E82EF12C8F2D0E943C05C0E0D0E099
:1033A000082F10E098010C2E02C0359527950A943D
:1033B000E2F720FD05C02196C830D10599F708C075
:1033C0006C2F7F2D80E00E945804E812F4CF06C0D5
:1033D000F39480E1F812DFCF80E001C081E0DF915B
:1033E000CF911F910F91FF90EF900895CF93C82F29
:1033F00086EC0E94C319882321F08C2FCF910C9466
:10340000C31980E0CF910895CF930E94491B811189
:1034100002C00E942F1BC5E608C00E949E048FE3D5
:103420009CE90197F1F700C00000C150B1F789E2B3
:103430000E94F619811111C18AE20E94F6198111C8
:103440000E942F1B85E00E94F61981110E945019DD
:103450000E94541B8093D80187E00E94F6198823AC
:1034600099F18BE10E94F619882351F09091D801CF
:1034700091FB882780F921E0822780FB91F922C007
:103480008EE00E94F619882351F09091D80192FBAA
:10349000882780F921E0822780FB92F913C080E120
:1034A0000E94F6199091D801882341F093FB882758
:1034B00080F921E0822780FB93F904C0892F809551
:1034C00080FB90F99093D8018091D8010E94581BFD
:1034D0000E94661B8093E80180EE0E94F619882303
:1034E00041F08091E801982F909590FB80F98093AE
:1034F000E80189E30E94F619882359F09091E801C8
:1035000091FB882780F921E0822780FB91F9909335
:10351000E80182EE0E94F619882359F09091E801A3
:1035200092FB882780F921E0822780FB92F9909313
:10353000E80186EE0E94F619882359F09091E8017F
:1035400093FB882780F921E0822780FB93F99093F1
:10355000E80183EE0E94F619882359F09091E80162
:1035600094FB882780F921E0822780FB94F99093CF
:10357000E80185E30E94F619882359F09091E8014B
:1035800095FB882780F921E0822780FB95F99093AD
:10359000E80181E30E94F619882359F09091E8012F
:1035A00096FB882780F921E0822780FB96F990938B
:1035B000E80181E10E94F619882359F09091E80111
:1035C00097FB882780F921E0822780FB97F9909369
:1035D000E8018091E8010E946A1B8091E80187FB65
:1035E000882780F980930B0187E20E94F619C82F83
:1035F0008EE10E94F6198111C2608FE10E94F619D6
:103600008111C46080E20E94F6198111C86081E2D4
:103610000E94F6198111C06182E20E94F61981119F
:10362000C06283E20E94F6198111C06484E20E94A4
:10363000F619882311F0C06802C0CC2329F08C2F22
:103640000E94611B6C2F03C00E945D1B682F70E0FD
:1036500080E090E0CF910C949D15CF9108956DEE90
:103660007EEF80E090E00E943D2160E082E090E00B
:103670000E942F2160E083E090E00E942F2160E013
:1036800084E090E00E942F2160E085E090E00C94BF
:103690002F2180E090E00E94292121E08D3E9E4F65
:1036A00009F020E0822F089582E090E00C9421211F
:1036B000682F82E090E00C942F2183E090E00C943E
:1036C0002121682F83E090E00C942F2184E090E08A
:1036D0000C942121682F84E090E00C942F2180919C
:1036E000E30180FF0BC06091110185E0689FB0018C
:1036F000112475956795759567952AC081FF09C056
:103700006091110185E0689FB0011124759567955E
:103710001FC082FF07C06091110185E0689FB00162
:10372000112416C04091DD014423C9F060911001BD
:10373000461788F72091110185E0289F90011124F8
:10374000429FC001439F900D112470E00E94F3201E
:103750006038710540F46115710539F002C065E00B
:1037600070E0862F08958FE7089581E00895809195
:10377000E30180FF08C060910F0170E075956795C7
:103780007595679521C081FF06C060910F0170E0BB
:103790007595679519C082FF04C060910F0170E0B4
:1037A00010C08091DD018823C1F060910E01861761
:1037B000A0F790910F01989FC001112470E00E9422
:1037C000F3206038710528F46115710521F0862F0A
:1037D00008958FE7089581E0089561E070E0F4CFE7
:1037E000803F21F40E946F1B819504C0813F29F422
:1037F0000E946F1B8093E0010895823F21F40E9494
:103800006F1B819504C0833F29F40E946F1B809336
:10381000DF010895893F19F40E94B71B05C08A3F54
:1038200031F40E94B71B81958093E10108958B3F8D
:1038300021F40E94B71B819504C08C3F29F40E949B
:10384000B71B8093E2010895843F21F48091DE014B
:10385000816017C0853F21F48091DE01826011C034
:10386000863F21F48091DE0184600BC0873F21F404
:103870008091DE01886005C0883F31F48091DE01CF
:1038800080618093DE0108958D3F21F48091E301F2
:1038900081600BC08E3F21F48091E301826005C0FE
:1038A0008F3F29F48091E30184608093E3010895C0
:1038B000803F29F48091E00187FF6EC007C0813FFF
:1038C00041F48091E00118160CF066C01092E001FE
:1038D00063C09091DF01823F19F497FF5DC005C07E
:1038E000833F31F419160CF057C01092DF0154C019
:1038F000893F31F48091E10118160CF04DC006C0EB
:103900008A3F39F48091E10187FF46C01092E101BE
:1039100043C08B3F29F48091E20187FF3DC006C080
:103920008C3F39F48091E2011816B4F51092E2014F
:1039300033C0843F21F48091DE018E7F05C0853F36
:1039400031F48091DE018D7F8093DE0125C0863FBA
:1039500021F48091DE018B7FF7CF873F21F48091A6
:10396000DE01877FF1CF883F21F48091DE018F7ED9
:10397000EBCF8D3F21F48091E3018E7F0BC08E3F12
:1039800021F48091E3018D7F05C08F3F29F4809160
:10399000E3018B7F8093E3018091DF0181110EC0F1
:1039A0008091E00181110AC08091E101811106C07E
:1039B0008091E201811102C01092DD0108958EED27
:1039C00091E00E946B0C0E94F0189093DC018093B0
:1039D000DB010895CF938091DB019091DC010E947F
:1039E000FD184091DD01442321F02091120130E0C7
:1039F00006C0209113015AE0259F900111248217DF
:103A0000930708F486C08091DF0181110DC0909169
:103A1000E001911109C09091E101911105C09091CF
:103A2000E201992309F475C04F3F19F04F5F4093AD
:103A3000DD01181624F40E946F1B8093DF01809132
:103A4000DF0187FF05C00E946F1B81958093DF0116
:103A50008091E001181624F40E946F1B8093E0010E
:103A60008091E00187FF05C00E946F1B81958093C4
:103A7000E0016091DF01662339F1C091E001CC23C0
:103A800019F1772767FD7095872F972F0E940420E3
:103A900023E333E343E35FE30E9468200E94D11FE6
:103AA0006093DF016C2F772767FD7095872F972F25
:103AB0000E94042023E333E343E35FE30E94682092
:103AC0000E94D11F6093E0018091E101181624F457
:103AD0000E94B71B8093E1018091E10187FF05C03F
:103AE0000E94B71B81958093E1018091E201181635
:103AF00024F40E94B71B8093E2018091E20187FFCA
:103B000005C00E94B71B81958093E201CF910C9470
:103B1000DF1CCF910895EEEDF1E085E0DF011D920D
:103B20008A95E9F71092DD011092E3010895833040
:103B300089F130F4813061F0823009F06EC019C033
:103B4000853009F449C0B8F1863009F066C055C027
:103B500020911301862F90E0820F911D8F3F9105D8
:103B600020F4620F6093130108958FEF8093130187
:103B7000089520911201862F90E0820F911D8F3FB2
:103B8000910520F4620F6093120108958FEF8093E6
:103B90001201089520911101862F90E0820F911D4E
:103BA0008F3F910520F4620F6093110108958FEF0C
:103BB00080931101089520911001862F90E0820FCB
:103BC000911D8F3F910520F4620F609310010895BD
:103BD0008FEF80931001089520910F01862F90E0C0
:103BE000820F911D8F3F910520F4620F60930F01AA
:103BF00008958FEF80930F01089520910E01862F75
:103C000090E0820F911D8F3F910520F4620F609329
:103C10000E0108958FEF80930E010895833021F1F6
:103C200030F4813059F0823009F049C012C085303B
:103C300089F128F1863009F042C037C08091130124
:103C4000681720F4861B80931301089510921301C6
:103C5000089580911201681720F4861B8093120149
:103C6000089510921201089580911101681720F4AF
:103C7000861B80931101089510921101089580917F
:103C80001001681720F4861B80931001089510928C
:103C90001001089580910F01681720F4861B80930E
:103CA0000F01089510920F01089580910E01681779
:103CB00020F4861B80930E01089510920E01089542
:103CC00041E050E060E070E004C0440F551F661F03
:103CD000771F8A95D2F7CB01BA010E949D150C94EB
:103CE000971180E00895CF93C82F8091E40181302F
:103CF00009F4F2C020F0823009F048C1FCC0A09164
:103D00000C01B0910D018C91823209F041C18C2FD0
:103D10000E94711E811140C14C2F50E0FA0136976C
:103D2000E334F10508F0D4C0EA5AFF4F0C940721A0
:103D30000E94541B0E94661B2FC10E944F0C892BAE
:103D400049F00E944F0C9093E6018093E50180E0DA
:103D500090E004C08091E5019091E6010E944A0C38
:103D60001BC18091D801817F8E7F8093D80181E033
:103D70008093E40111C10E9497112FEF83ED90E32E
:103D8000215080409040E1F700C000000E9450198F
:103D900003C18091D80180FF03C0817F8E7F01C065
:103DA00081608093D801F8C09091D80191FB882759
:103DB00080F921E0822780FB91F913C09091D8010E
:103DC00092FB882780F921E0822780FB92F909C0C5
:103DD0009091D80193FB882780F921E0822780FB0E
:103DE00093F99093D801882309F4D6C091609093F9
:103DF000D801D2C08091D4019091D501A091D60173
:103E0000B091D701BF93AF939F938F9380E796E0D4
:103E10009F938F930E944F040F900F900F900F90DD
:103E20000F900F90B9C00E94540C1F928F9384E89A
:103E300096E09F938F930E944F0480910A011F92F6
:103E40008F938EE996E09F938F930E944F04809109
:103E500056011F928F9385EB96E09F938F930E945C
:103E60004F048DB79EB70C960FB6F8949EBF0FBE49
:103E70008DBF92C00E94971180910B0191E089271C
:103E800080930B0189C081E890E00E94760C9FEF3F
:103E900021EE84E0915020408040E1F700C0000016
:103EA00080E090E00E94760C9FEF29E688E1915037
:103EB00020408040E1F700C000006EC080E005C0F7
:103EC0008C2F8D5102C08C2F89530E94601E64C0BC
:103ED00080E090E0817063C0C43131F0C93221F0DC
:103EE000C03109F057C003C01092E40153C082E012
:103EF0008093E4014FC0C932C1F060F4C431A9F02D
:103F000020F4C73009F046C02EC0CE51CA3008F0A8
:103F100041C011C0CE3409F118F4CB34D9F517C023
:103F2000C13599F0C235B1F50EC01092E70181E0BC
:103F30008093E40134C0EC2FF0E0E85DFE4F808117
:103F40008093E70127C061E003C061E007C06AE039
:103F50008091E7010E94971D1DC06AE08091E701F2
:103F60000E940E1E17C08EE18093130182E380939E
:103F700012018AE08093110184E18093100188E0AE
:103F800080930F0188E280930E0104C01092E40137
:103F900080E005C081E003C081E090E09BCFCF913D
:103FA000089504D06894B1118DC0089570D088F040
:103FB0009F5790F0B92F9927B751A0F0D1F0660F15
:103FC000771F881F991F1AF0BA95C9F712C0B13030
:103FD00081F077D0B1E0089574C0672F782F8827DB
:103FE000B85F39F0B93FCCF3869577956795B3956F
:103FF000D9F73EF490958095709561957F4F8F4FDE
:104000009F4F0895E89409C097FB3EF490958095E2
:10401000709561957F4F8F4F9F4F9923A9F0F92F8E
:1040200096E9BB279395F695879577956795B7950C
:10403000F111F8CFFAF4BB0F11F460FF1BC06F5FF2
:104040007F4F8F4F9F4F16C0882311F096E911C004
:10405000772321F09EE8872F762F05C0662371F025
:1040600096E8862F70E060E02AF09A95660F771F39
:10407000881FDAF7880F9695879597F9089557FD69
:104080009058440F551F59F05F3F71F04795880FC6
:1040900097FB991F61F09F3F79F08795089512165D
:1040A00013061406551FF2CF4695F1DF08C0161609
:1040B00017061806991FF1CF8695710561050894BA
:1040C0000895E894BB2766277727CB0197F90895D1
:1040D0000BD078C069D028F06ED018F0952309F085
:1040E0005AC05FC01124EECFCADFA0F3959FD1F371
:1040F000950F50E0551F629FF001729FBB27F00D96
:10410000B11D639FAA27F00DB11DAA1F649F6627EA
:10411000B00DA11D661F829F2227B00DA11D621F39
:10412000739FB00DA11D621F839FA00D611D221FF3
:10413000749F3327A00D611D231F849F600D211DD7
:10414000822F762F6A2F11249F5750408AF0E1F07A
:1041500088234AF0EE0FFF1FBB1F661F771F881FC3
:1041600091505040A9F79E3F510570F014C0AACF5E
:104170005F3FECF3983EDCF3869577956795B795AE
:10418000F795E7959F5FC1F7FE2B880F911D9695D8
:10419000879597F9089597F99F6780E870E060E048
:1041A00008959FEF80EC089500240A9416161706D0
:1041B00018060906089500240A9412161306140618
:1041C00005060895092E0394000C11F4882352F07B
:1041D000BB0F40F4BF2B11F460FF04C06F5F7F4F33
:1041E0008F4F9F4F089597FB072E16F4009407D02A
:1041F00077FD09D00E940D2107FC05D03EF4909573
:1042000081959F4F0895709561957F4F0895EE0FAA
:10421000FF1F0590F491E02D0994AA1BBB1B51E1EF
:1042200007C0AA1FBB1FA617B70710F0A61BB70B26
:10423000881F991F5A95A9F780959095BC01CD01CB
:104240000895F999FECF92BD81BDF89A992780B55E
:104250000895A8E1B0E042E050E00C944421262FFC
:10426000F999FECF1FBA92BD81BD20BD0FB6F8945B
:10427000FA9AF99A0FBE019608950E942F21272FCE
:104280000C943021DC01CB01FC01F999FECF06C072
:10429000F2BDE1BDF89A319600B40D924150504004
:0842A000B8F70895F894FFCF70
:1042A80073050306DF05AA0576050101C401280880
:1042B800140A321E080521053A0553053106E4059E
:1042C800AE0575053F4D363901020304050607089A
:0242D8000900DB
:00000001FF
